:100000000C94373C0C94683C0C94683C0C94683C11
:100010000C94683C0C94683C0C94683C0C94683CD0
:100020000C94683C0C94683C0C94683C0C94683CC0
:100030000C94683C0C94935D0C94683C0C94683C64
:100040000C94683C0C94683C0C94683C0C94683CA0
:100050000C94683C0C94683C0C94683C0C946D6B5C
:100060000C94683C0C945D5D0C94345D0C94683C7D
:100070000C94683C0C94683C0C94683C0C94683C70
:100080000C94683C0C94683C0C94683C0C94683C60
:100090000C94683C0C94683C0C94683C0C94683C50
:1000A0000C94683C0C94683C0C94683C0C94683C40
:1000B0000C94683C0C94683C0C94683C0C94683C30
:1000C0000C94683C0C94683C0C94683C0C94683C20
:1000D0000C94683C0C94683C0C94683C0C94683C10
:1000E0000C94683CE077037BFC7C7E7D237E3C7E29
:1000F000827E16791B7920792A793479AD793E7917
:1001000046794E79587962796C797B798579AD79C0
:100110008F799979A37998579B578A578E57945717
:10012000D2579F57A357A957AD57B157B757BB578A
:10013000BF57D257C557C957CD57084AD73B3BCEB3
:10014000016E84BCBFFDC12F3D6C74319ABD5683D6
:100150003DDA3D00C77F11BED9E4BB4C3E916BAA8E
:10016000AABE000000803F07634236B79BD8A71A9B
:1001700039685618AEBAAB558C1D3CB7CC5763BD29
:100180006DEDFD753EF6177231BF000000803F082F
:10019000000000BE922449123EABAAAA2ABECDCCD2
:1001A000CC4C3E00000080BEABAAAAAA3E000000D4
:1001B00000BF000000803F0000000000084178D32D
:1001C000BB4387D1133D190E3CC3BD4282AD2B3ECC
:1001D00068EC8276BED98FE1A93E4C80EFFFBE016C
:1001E000C4FF7F3F00000000000011007F9629003F
:1001F00001007F9628003A0155C0021010C101414C
:10020000C50400228040360168B00100B102B0117F
:10021000B40102B60302023BB701C63A0155F70426
:10022000A9512C82C0020D0DC1024300C20100C5BC
:100230000400480048B40100B60302023BE00F0F7F
:10024000211C0B0E08499838091103141000E10F06
:100250000F2F2B0C0E06477637071104231E00B014
:100260000100B30402000000B40100D003074218EB
:10027000D103000710D2020102D3020102D402010D
:1002800002C005123B000211C103101088C5010312
:10029000C60102C80C003236450616377577540C75
:1002A00000CC0100F603010100CF03008130ED0412
:1002B00064031281E803851078CB05392C003402E1
:1002C000F70120EA020000B00100B102001BB401F6
:1002D00000C00121C10111C5023F3CC701B5360173
:1002E00048F20100260101E00F0F26240B0E0954ED
:1002F000A8460C17090F0700E10F00191B0410078F
:100300002A473903060630380F360100B00100C114
:100310000410100202C006003500000102C50104ED
:10032000D2020104CA0100EA0180B903FF83577FAA
:10033000967F96B60125C0065050013C1E08B407B2
:100340000240002A2A0D787F01F20B1616030808D6
:10035000080810041616FD03110235B2050C0C0036
:100360003333B70135BB012BC00104C20201FFC307
:100370000111C40120C6010FD002A4A1E00ED000DB
:10038000050E150D3743470915121619E10ED00059
:10039000050D0C062D44400E1C1816193A01557F08
:1003A0000AB00103E2013FC00122E20100B00100F6
:1003B000C0010AB0010000000000000000000000C1
:1003C000000000000000FFFF0F00000400620800B2
:1003D00008080003000C01030B5A0203060903037B
:1003E000171004030023050300170603096307031E
:1003F000090C08030C10090332221000160011002A
:10040000010112000000130001000001300301018E
:1004100037020301000D800200610201B0C1FFFF3D
:100420003200010000010200000103003010090049
:1004300001000C000000900000800F00000010027E
:1004400000001102EF001202000013028F010005EC
:1004500000000105000002055F0001040100040422
:100460000000FFFF320007000001FFFF3200000222
:100470000000010200000000000000000000000079
:10048000000000000100A4000100FFFF0A0060005E
:100490000027080008083000140231001537320028
:1004A00004063300160E3400112235000015360004
:1004B0000785370007143800031439002000900026
:1004C00015001000100411003702290046002A0010
:1004D0004600070000001200890113000011FFFF11
:1004E00096001200B90101000001020000020300A1
:1004F0003010090001000A0000000D0000000E008D
:100500003000610001006A000000800000008100EE
:10051000000082005F009200000193000107FFFFCE
:10052000500007000001E500F07801000001020022
:100530000002030030100400000005000000080065
:100540000702090000000A0000000C0000000D0076
:1005500000000F0000001000000011000700120052
:1005600000001300000007000100FFFFC80010009A
:10057000901611002702FFFF320012000D00FFFF4E
:1005800032001300001229000A002B000D00FFFFAB
:100590003200200000002100000030000000310087
:1005A0000404320003003500050436000808370053
:1005B000070438000303390007073C0004053D0029
:1005C000080860000027610001006A000000800048
:1005D0000000810000008200000083000000840011
:1005E000000085000000900010009200000007004D
:1005F0003301E5000080000001000100000102005D
:100600000007030030100400000008000202090087
:1006100000000A0000000C0000000D0000000F00A8
:10062000000010000000110007001200000013007D
:100630000000FFFF32001000B01711000700FFFF9D
:100640000A0012003A01FFFF0A001300001A2900F5
:100650000C00FFFF0A0030000000310005053200E9
:100660000400350006003600070737000501380092
:100670000200390007073C0004073D00070860003E
:1006800000A7610001006A000000210000002000B6
:100690000000800000008100000082000000830054
:1006A000000084000000850000009000100092000F
:1006B00000009300030095001001970000009800CF
:1006C000000007007301FFFF3200FF000100F3008C
:1006D0000800000001000100000102000007030003
:1006E0003010080002030900000010000000110093
:1006F00007001200000013000000FFFF320010008E
:10070000B014FFFF0A0011000700FFFF0A001200EB
:100710008E001300000C29001500FFFF0A003000B6
:1007200000003100070132000000350003023600EE
:1007300002043700000038000702390000003C00C6
:1007400003023D000304600000A761000100900067
:10075000290007003301FFFF3200150030009A0026
:1007600010001100200010002834120002001300B5
:100770003810FFFF280012001200FFFF28001000B1
:10078000203413004530FFFF4600300000003100E8
:100790000204320007033300040334000400350070
:1007A000010436000707370005033800100639003A
:1007B00010060100000102000003030030100800D1
:1007C00008080A000800600000276100010090008E
:1007D0003E019200000193000001A0000030A30040
:1007E0001000070001000700210007002300070098
:1007F00033000700330111001A00120021311300E9
:100800006C001400494210000008FFFF0A001100AC
:100810001A01FFFF0A0011001A03FFFF0A0011006E
:100820001A07FFFF0A0011001A0FFFFF0A0011004C
:100830003A0FFFFF1E000100280102000001030023
:10084000301007001210080003030B0000110C0009
:1008500000000F0001181500200050000101510098
:10086000030652000804530000005400050655001A
:1008700006045600030357000303580010005900F4
:10088000001007001200FFFF2800070013000700F8
:100890001700446F6E6500FFFFFFFFFFFFFFFFFFC4
:1008A000FFFFFFFFFFFFFFFFFFFFFFFFFFFFFFFF58
:1008B000FFFFFFFFFFFFFFFFFFFFFFFFFFFFFFFF48
:1008C000FFFFFFFFFFFFFFFFFFFFFFFFFFFFFFFF38
:1008D000FFFFFFFFFFFFFFE2F102FA02FA02FA0256
:1008E000FA22FA22FA02FAE2F9E2F902FAFFFFFF2B
:1008F000FFFFFFFFFFFFFFFFFFFFFFFFFFFFFFFF08
:10090000FFFFFFFFFFFFFFFFFFFFFFFFFFFFFFFFF7
:10091000FFFFFFFFFFFFFFFFFFFFFFFFFFFFFFFFE7
:10092000FFFFFFFFFFFFFFFFFFFFFFFFFFFFFFFFD7
:10093000FFFFFFFFFFFFFFFFFFFFFFFFFFFFFFFFC7
:10094000FFFFFFFFFFFFFFFFFFFFFFFFFFFFFFFFB7
:10095000FFFFFFFFFFFFFFFFFFFFFFFFFFFFFFFFA7
:10096000FFFFFFFFFFFFFFFFFFFFFFFFFFFFFFFF97
:10097000FFFFFFFFFFFFFFFFFFFFFFFFFFFFFFFF87
:10098000FFFFFFFFFFFFFFFFFFFFFFFFFFFFFFFF77
:10099000FFFFFFFFFFFFFFFFFFFFFFE2F122FA0271
:1009A000FA22FA22FA22FA22FA22FA22FA22FA2267
:1009B000FA22FA02FA02FAE2F9FFFFFFFFFFFFFF55
:1009C000FFFFFFFFFFFFFFFFFFFFFFFFFFFFFFFF37
:1009D000FFFFFFFFFFFFFFFFFFFFFFFFFFFFFFFF27
:1009E000FFFFFFFFFFFFFFFFFFFFFFFFFFFFFFFF17
:1009F000FFFFFFFFFFFFFFFFFFFFFFFFFFFFFFFF07
:100A0000FFFFFFFFFFFFFFFFFFFFFFFFFFFFFFFFF6
:100A1000FFFFFFFFFFFFFFFFFFFFFFFFFFFFFFFFE6
:100A2000FFFFFFFFFFFFFFFFFFFFFFFFFFFFFFFFD6
:100A3000FFFFFFFFFFFFFFFFFFFFFFFFFFFFFFFFC6
:100A4000FFFFFFFFFFFFFFFFFFFFFFFFFFFFFFFFB6
:100A5000FFFFFFFFFFFFFFFFFFFFFFFFFFFFFFFFA6
:100A6000FFE2F902FA22FA22FA22FA22FA22FA2202
:100A7000FA22FA22FA22FA22FA22FA22FA22FA02B6
:100A8000FA02FAFFFFFFFFFFFFFFFFFFFFFFFFFF7D
:100A9000FFFFFFFFFFFFFFFFFFFFFFFFFFFFFFFF66
:100AA000FFFFFFFFFFFFFFFFFFFFFFFFFFFFFFFF56
:100AB000FFFFFFFFFFFFFFFFFFFFFFFFFFFFFFFF46
:100AC000FFFFFFFFFFFFFFFFFFFFFFFFFFFFFFFF36
:100AD000FFFFFFFFFFFFFFFFFFFFFFFFFFFFFFFF26
:100AE000FFFFFFFFFFFFFFFFFFFFFFFFFFFFFFFF16
:100AF000FFFFFFFFFFFFFFFFFFFFFFFFFFFFFFFF06
:100B0000FFFFFFFFFFFFFFFFFFFFFFFFFFFFFFFFF5
:100B1000FFFFFFFFFFFFFFFFFFFFFFFFFFFFFFFFE5
:100B2000FFFFFFFFFFFFFF02FA22FA22FA22FA225A
:100B3000FA22FA22FA22FA22FA22FA22FA22FA22D5
:100B4000FA22FA22FA22FA22FA22FA02FAE2F1FF51
:100B5000FFFFFFFFFFFFFFFFFFFFFFFFFFFFFFFFA5
:100B6000FFFFFFFFFFFFFFFFFFFFFFFFFFFFFFFF95
:100B7000FFFFFFFFFFFFFFFFFFFFFFFFFFFFFFFF85
:100B8000FFFFFFFFFFFFFFFFFFFFFFFFFFFFFFFF75
:100B9000FFFFFFFFFFFFFFFFFFFFFFFFFFFFFFFF65
:100BA000FFFFFFFFFFFFFFFFFFFFFFFFFFFFFFFF55
:100BB000FFFFFFFFFFFFFFFFFFFFFFFFFFFFFFFF45
:100BC000FFFFFFFFFFFFFFFFFFFFFFFFFFFFFFFF35
:100BD000FFFFFFFFFFFFFFFFFFFFFFFFFFFFFFFF25
:100BE000FFFFFFFFFFFFFFFFFFC3F102FA22FA2220
:100BF000FA22FA22FA22FA22FA22FA22FA22FA2215
:100C0000FA22FA22FA22FA22FA22FA22FA22FA2204
:100C1000FA22FA22FA02FA02FAE2F9FFFFFFFFFFD4
:100C2000FFFFFFFFFFFFFFFFFFFFFFFFFFFFFFFFD4
:100C3000FFFFFFFFFFFFFFFFFFFFFFFFFFFFFFFFC4
:100C4000FFFFFFFFFFFFFFFFFFFFFFFFFFFFFFFFB4
:100C5000FFFFFFFFFFFFFFFFFFFFFFFFFFFFFFFFA4
:100C6000FFFFFFFFFFFFFFFFFFFFFFFFFFFFFFFF94
:100C7000FFFFFFFFFFFFFFFFFFFFFFFFFFFFFFFF84
:100C8000FFFFFFFFFFFFFFFFFFFFFFFFFFFFFFFF74
:100C9000FFFFFFFFFFFFFFFFFFFFFFFFFFFFFFFF64
:100CA000FFFFFFFFFFFFFFFFFFFFFFFFFFFFFF0251
:100CB000FA02FA22FA22FA22FA22FA22FA22FA2274
:100CC000FA22FA22FA22FA22FA22FA22FA22FA2244
:100CD000FA22FA22FA22FA22FA22FA22FA22FA2234
:100CE000FA02FA22FAFFFFFFFFFFFFFFFFFFFFFFFD
:100CF000FFFFFFFFFFFFFFFFFFFFFFFFFFFFFFFF04
:100D0000FFFFFFFFFFFFFFFFFFFFFFFFFFFFFFFFF3
:100D1000FFFFFFFFFFFFFFFFFFFFFFFFFFFFFFFFE3
:100D2000FFFFFFFFFFFFFFFFFFFFFFFFFFFFFFFFD3
:100D3000FFFFFFFFFFFFFFFFFFFFFFFFFFFFFFFFC3
:100D4000FFFFFFFFFFFFFFFFFFFFFFFFFFFFFFFFB3
:100D5000FFFFFFFFFFFFFFFFFFFFFFFFFFFFFFFFA3
:100D6000FFFFFFFFFFFFFFFFFFFFFFFFFFFFFF0290
:100D7000FAFFFF03F222FA22FA22FA22FA22FA22D8
:100D8000FA22FA22FA22FA22FA22FA22FA22FA2283
:100D9000FA22FA22FA22FA22FA22FA22FA22FA2273
:100DA000FA22FA22FA22FA22FA22FA22FA22FAE2A3
:100DB000F1FFFFFFFF0008FFFFFFFFFFFFFFFFFF47
:100DC000FFFFFFFFFFFFFFFFFFFFFFFFFFFFFFFF33
:100DD000FFFFFFFFFFFFFFFFFFFFFFFFFFFFFFFF23
:100DE000FFFFFFFFFFFFFFFFFFFFFFFFFFFFFFFF13
:100DF000FFFFFFFFFFFFFFFFFFFFFFFFFFFFFFFF03
:100E0000FFFFFFFFFFFFFFFFFFFFFFFFFFFFFFFFF2
:100E1000FFFFFFFFFFFFFFFFFFFFFFFFFFFFFFFFE2
:100E2000FFFFFFFFFFFFFFFFFFFFFFFFFFFFFFFFD2
:100E3000FFFFFFFFFFFFFFFFFF02FA02FA22FA2285
:100E4000FA22FA22FA22FA22FA22FA22FA22FA22C2
:100E5000FA22FA22FA22FA22FA22FA22FA22FA22B2
:100E6000FA22FA22FA22FA22FA22FA22FA22FA22A2
:100E7000FA22FA22FA22FA22FA02FAFFFFFFFFFF11
:100E8000FFFFFFFFFFFFFFFFFFFFFFFFFFFFFFFF72
:100E9000FFFFFFFFFFFFFFFFFFFFFFFFFFFFFFFF62
:100EA000FFFFFFFFFFFFFFFFFFFFFFFFFFFFFFFF52
:100EB000FFFFFFFFFFFFFFFFFFFFFFFFFFFFFFFF42
:100EC000FFFFFFFFFFFFFFFFFFFFFFFFFFFFFFFF32
:100ED000FFFFFFFFFFFFFFFFFFFFFFFFFFFFFFFF22
:100EE000FFFFFFFFFFFFFFFFFFFFFFFFFFFFFFFF12
:100EF000FFFFFFFFFFFFFFFFFFFFFFFFFFE2F90222
:100F0000FA22FA22FA22FA22FA22FA22FA22FA2201
:100F1000FA22FA22FA22FA22FA22FA22FA02FA0231
:100F2000FA02FA02FA22FA22FA22FA22FA22FA2221
:100F3000FA22FA22FA22FA22FA22FA22FA22FA22D1
:100F4000FA22FA02FAE2F9C2E9FFFFFFFFFFFFFF10
:100F5000FFFFFFFFFFFFFFFFFFFFFFFFFFFFFFFFA1
:100F6000FFFFFFFFFFFFFFFFFFFFFFFFFFFFFFFF91
:100F7000FFFFFFFFFFFFFFFFFFFFFFFFFFFFFFFF81
:100F8000FFFFFFFFFFFFFFFFFFFFFFFFFFFFFFFF71
:100F9000FFFFFFFFFFFFFFFFFFFFFFFFFFFFFFFF61
:100FA000FFFFFFFFFFFFFFFFFFFFFFFFFFFFFFFF51
:100FB000FFFFFFFFFFFFFFFFFFFFFFFFFFFFFF42FE
:100FC000FAFFFF02FA02FA22FA22FA22FA22FA229F
:100FD000FA22FA22FA22FA22FA22FA22FA22FA2231
:100FE000FA22FAC1D9C078E180E180E18081C12292
:100FF000FA22FA22FA22FA22FA22FA22FA22FA2211
:10100000FA22FA22FA22FA22FA22FA22FA22FA0220
:10101000FA62E9FFFFFFFFFFFFFFFFFFFFFFFFFF98
:10102000FFFFFFFFFFFFFFFFFFFFFFFFFFFFFFFFD0
:10103000FFFFFFFFFFFFFFFFFFFFFFFFFFFFFFFFC0
:10104000FFFFFFFFFFFFFFFFFFFFFFFFFFFFFFFFB0
:10105000FFFFFFFFFFFFFFFFFFFFFFFFFFFFFFFFA0
:10106000FFFFFFFFFFFFFFFFFFFFFFFFFFFFFFFF90
:10107000FFFFFFFFFFFFFFFFFFFFFFFFFFFFFFFF80
:10108000FFFFFFFFFF02FAFFFF22FA22FA22FA22F5
:10109000FA22FA22FA22FA22FA22FA22FA22FA2270
:1010A000FA22FA22FA22FA22FA22FAE0800020FF3B
:1010B000FF0008FFFF219922FA22FA22FA22FA22DF
:1010C000FA22FA22FA22FA22FA22FA22FA22FA2240
:1010D000FA22FA22FA22FA22FA22FAA1E9FFFFFF03
:1010E000FFFFFFFFFFFFFFFFFFFFFFFFFFFFFFFF10
:1010F000FFFFFFFFFFFFFFFFFFFFFFFFFFFFFFFF00
:10110000FFFFFFFFFFFFFFFFFFFFFFFFFFFFFFFFEF
:10111000FFFFFFFFFFFFFFFFFFFFFFFFFFFFFFFFDF
:10112000FFFFFFFFFFFFFFFFFFFFFFFFFFFFFFFFCF
:10113000FFFFFFFFFFFFFFFFFFFFFFFFFFFFFFFFBF
:10114000FFFFFFFFFFFFFFFFFFFFFFFFFFFFFF02AC
:10115000FA22FA22FA22FA22FA22FA22FA22FA22AF
:10116000FA22FA22FA22FA22FA22FA22FA22FA02BF
:10117000FA22FAC0700028FFFFFFFFFFFF22FA02E9
:10118000F202F222FA22FA22FA22FA22FA22FA22AF
:10119000FA22FA22FA22FA22FA22FA22FA22FA226F
:1011A000FA22FA02FA61B9FFFFFFFFFFFFFFFFFF1C
:1011B000FFFFFFFFFFFFFF8AF7C0FFC1FFC0FFFF78
:1011C000FFFFFFFFFFFFFFFFFFFFFFA1F780F7C15A
:1011D000FFC2FF47EFFFFFFFFFFFFFFFFFFFFFFF24
:1011E000FFFFFFFFFFFFFFFFFFFFFFFFFFFFFFFF0F
:1011F000FFFFFFFFFFFFFFFFFFFFFFFFFFFFFFFFFF
:10120000FFFFFFFFFFFFFFFFFFFFFFFFFFFFFFFFEE
:10121000FFFFFFFFFF02FA22FA22FA22FA22FA2245
:10122000FA22FA22FA22FA22FA22FA22FA61A98191
:10123000C122FA02FA81B9E180203800200020FFA3
:10124000FFFFFFFFFF00102038E18081C1E2E9428B
:10125000FAA1C961B122FA22FA22FA22FA22FA226A
:10126000FA22FA22FA22FA22FA22FA02FAA1D14149
:10127000C1FFFFFFFFFFFFFFFFFFFFFFFFA5F7C15C
:10128000FFC0FFC0FFE0FF00E7E2FFC1FFC1FFA119
:10129000FFC2FFC0FFE0FFC0FFC0FFC1FFE3FFFFD1
:1012A000FFFFFFFFFFFFFFFFFFFFFFFFFFFFFFFF4E
:1012B000FFFFFFFFFFFFFFFFFFFFFFFFFFFFFFFF3E
:1012C000FFFFFFFFFFFFFFFFFFFFFFFFFFFFFFFF2E
:1012D000FFFFFFFFFFFFFFFFFFFFFF02FA02FA22FF
:1012E000FA22FA22FA22FA22FA22FA22FA22FA221E
:1012F000FA22FA21A10020FFFF41A980580028000E
:1013000008FFFFFFFF0020C2F982D982E1FFFFFF43
:10131000FFFFFFFFFF21A1C0782040FFFFE1E902AE
:10132000F222FA22FA22FA22FA22FA22FA22FA22E5
:10133000FA22FA22FAC2E1C271FFFFFFFFFFFFFFAC
:10134000FFFFFF23E7C0FFC0FFC0FFC0FFC0FFE0FB
:10135000FFC0FFC0FFC0FFC0FFC0FFC0FFC0FFC095
:10136000FFC0FFC0FF20CEFFFFFFFFFFFFFFFFFF1B
:10137000FFFFFFFFFFFFFFFFFFFFFFFFFFFFFFFF7D
:10138000FFFFFFFFFFFFFFFFFFFFFFFFFFFFFFFF6D
:10139000FFFFFFFFFFFFFFFFFFFFFFFFFFFFFFFF5D
:1013A000FFFFFF02FA22FA22FA22FA22FA22FA2296
:1013B000FA22FA22FA22FA22FA61B900180018FF7A
:1013C000FFFFFF00200018005000100018FFFF0072
:1013D000280018C2E12030FFFFFFFF0008FFFF00D8
:1013E000200018FFFFFFFF81D102FA22FA22FA2221
:1013F000FA22FA22FA22FA22FA22FA22FA42FA808F
:1014000060FFFFFFFFFFFFFFFFFFFFC0FFC0FFC048
:10141000FFC0FFC0FFC0FFC0FFC0FFC0FFC0FFC0D4
:10142000FFC0FFC0FFC0FFC0FFC0FFC0FFA09CFF08
:10143000FFFFFFFFFFFFFFFFFFFFFFFFFFFFFFFFBC
:10144000FFFFFFFFFFFFFFFFFFFFFFFFFFFFFFFFAC
:10145000FFFFFFFFFFFFFFFFFFFFFFFFFFFFFFFF9C
:10146000FFFFFFFFFFFFFFFFFFFFFF02FA22FA224D
:10147000FA22FA22FA22FA22FA22FA22FA22FA228C
:10148000FA0010FFFFFFFFFFFFFFFF001000180032
:10149000100010FFFF82E102FAE2F941D90028FFB3
:1014A000FF0008FFFFFFFFFFFFFFFFFFFF8040FF80
:1014B000FFE2F122FA22FA22FA22FA22FA22FA2290
:1014C000FA22FA22FA22FAA1D1FFFFFFFFFFFFFF63
:1014D000FFFFFFA2FFC0FFC0FFC0FFC0FFC0FFC0F3
:1014E000FFC0FFE0FFE0FFC0FFC0FFC0FFC0FFC0C4
:1014F000FFC0FF80F74008FFFFFFFFFFFFFFFFFF78
:10150000FFFFFFFFFFFFFFFFFFFFFFFFFFFFFFFFEB
:10151000FFFFFFFFFFFFFFFFFFFFFFFFFFFFFFFFDB
:10152000FFFFFFFFFFFFFFFFFFFFFFFFFFFFFFFFCB
:10153000FF40D822FA22FA22FA22FA22FA22FA22CA
:10154000FA22FA22FA22FA22FAA1C9FFFFFFFFFFCC
:10155000FF000800080010FFFF2028FFFFFFFFC268
:10156000E1C2E1E0880008FFFF0010FFFFFFFFFF7E
:10157000FFFFFF00106038FFFFC2E922FA22FA22C3
:10158000FA22FA22FA22FA22FA22FA22FA22FA029B
:10159000F2FFFFFFFFFFFFFFFFFFFFFFFFC0FFC0E6
:1015A000FFC0FFC0FFC0FFE0FFC0FFE0E6E0E6C015
:1015B000FFE0FFC0FFC0FFC0FFC0FFC0FFC0DEFFF5
:1015C000FFFFFFFFFFFFFFFFFFFFFFFFFFFFFFFF2B
:1015D000FFFFFFFFFFFFFFFFFFFFFFFFFFFFFFFF1B
:1015E000FFFFFFFFFFFFFFFFFFFFFFFFFFFFFFFF0B
:1015F000FFFFFFFFFFFFFFFFFF02FA22FA22FA229E
:10160000FA22FA22FA22FA22FA22FA22FA22FA22FA
:10161000FA02F20020FFFFFFFF00100018FFFF009A
:1016200010FFFF62D0A1E9A2E1C2E981C9A1E9C02E
:1016300090FFFFFFFFFFFF000800080008FFFFA169
:10164000E102FA22FA22FA22FA22FA22FA22FA22F3
:10165000FA22FA22FA22FA02F20008FFFFFFFFFF45
:10166000FFFFFFC0FFC0FFC0FFC0FFC0FFE0FF6083
:1016700094402960298031C03920ADE0FFC0FFC00F
:10168000FFC0FFC0FFC0FFE0DEFFFFFFFFFFFFFF67
:10169000FFFFFFFFFFFFFFFFFFFFFFFFFFFFFFFF5A
:1016A000FFFFFFFFFFFFFFFFFFFFFFFFFFFFFFFF4A
:1016B000FFFFFFFFFFFFFFFFFFFFFFFFFFFFFFFF3A
:1016C000FF22FA22FA22FA22FA22FA22FA22FA2235
:1016D000FA22FA22FA22FA22FA01990008FFFFFF01
:1016E000FFFFFFFFFF0010FFFFC198C2E122FA22B7
:1016F000FA22FA22FA02FA41B9E1900020FFFFFF34
:10170000FFFFFFFFFFFFFFA1E122FA22FA22FA22E8
:10171000FA22FA22FA22FA22FA22FA22FA22FA0209
:10172000F20010FFFFFFFFFFFF81F7C0FFC0FFC007
:10173000FFE0FFE0FFC0182008FFFFFFFFFFFFFFF3
:10174000FFFFFFE05AE0FFC0FFC0FFC0FFE0FF4027
:10175000AD606BFFFFFFFFFFFFFFFFFFFFFFFFFF1E
:10176000FFFFFFFFFFFFFFFFFFFFFFFFFFFFFFFF89
:10177000FFFFFFFFFFFFFFFFFFFFFFFFFFFFFFFF79
:10178000FFFFFFFFFFFFFFFFFF22FA22FA22FA22EC
:10179000FA22FA22FA22FA22FA22FA22FA22FA2269
:1017A000FA0018FFFFFFFFFFFF00104020FFFFFFC0
:1017B000FF41B9C2E122FA22FA22FA22FA22FA61A0
:1017C000C101A121B9FFFFA060FFFFFFFF4020FF83
:1017D000FF02FA22FA22FA22FA22FA22FA22FA2244
:1017E000FA22FA22FA22FA02F20010FFFFFFFFFFAC
:1017F000FFC1FFC0FFC0FFE0FF60F7A0312000FF86
:10180000FF61D681FFFFFFE018FFFFFFFF00A5C0CB
:10181000FFC0FFC0FFC0FFE0FFE0DEE3FFC3FFFF4C
:10182000FFFFFFFFFFFFFFFFFFFFFFFFFFFFFFFFC8
:10183000FFFFFFFFFFFFFFFFFFFFFFFFFFFFFFFFB8
:10184000FFFFFFFFFFFFFFFFFFFFFFFFFFFFFFFFA8
:10185000FF22FA22FA22FA22FA22FA22FA22FA22A3
:10186000FA22FA22FA22FA01990010FFFFFFFFFF85
:10187000FF4038FFFF42D102F2605821B122FA2224
:10188000FA22FA22FA02F2604882D102FA02FAFF40
:10189000FF6038FFFFFFFFFFFF03F222FA22FA2268
:1018A000FA22FA22FA22FA22FA22FA22FA22FA0278
:1018B000F20008E1FFC0FFC0FFC0FFC0FFC0FFE0B3
:1018C000FF8094FFFFFFFFFFFF00A5E0FF8010FFF8
:1018D000FFA0188010FFFFA0F7C0FFC0FFC0FFC02F
:1018E000FFC0FFE0FF80D6A094FFFFFFFFFFFFFFD8
:1018F000FFFFFFFFFFFFFFFFFFFFFFFFFFFFFFFFF8
:10190000FFFFFFFFFFFFFFFFFFFFFFFFFFFFFFFFE7
:10191000FFFFFFFFFFFFFFFFFF22FA22FA22FA225A
:10192000FA22FA22FA22FA22FA22FA22FA42FA4099
:1019300038FFFFFFFFFFFFFFFFFFFF61D902FAC281
:10194000E10008FFFF02FA22FA22FA22FAA070FF51
:10195000FFC2F122FA02FAC2E9FFFFFFFFFFFFFF19
:10196000FFFFFF02FA22FA22FA22FA22FA22FA22D0
:10197000FA22FA22FA22FA02F20008E0FFC0FFC0BF
:10198000FFC0FFC0FFC0FF80F78073FFFFFFFFC2F3
:10199000FFC2FFE0FF8052FFFF80106008FFFF845E
:1019A000F7C0FFC0FFC0FFC0FFC0FFE0FF40EFE097
:1019B0009CFFFFFFFFFFFFFFFFFFFFFFFFFFFFFF9A
:1019C000FFFFFFFFFFFFFFFFFFFFFFFFFFFFFFFF27
:1019D000FFFFFFFFFFFFFFFFFFFFFFFFFFFFFFFF17
:1019E000FF22FA22FA22FA22FA22FA22FA22FA2212
:1019F000FA02FAC07880600028FFFFFFFFFFFFFFB8
:101A0000FFE09802FA02F280600018FFFFE2F12284
:101A1000FA22FA02F20028FFFFFFFF02FA22FAA1DF
:101A2000C920380018FFFFFFFFFFFFA080E190E210
:101A3000E922FA22FA22FA22FA22FA22FA22FA02F7
:101A4000F20008E0FFC0FFC0FFC0FFC0FFC0FF60A2
:101A5000EFC05AFFFFFFFFC0DE40CE60F7E0FFE0BF
:101A60005AFFFFFFFFA010FFFFC0FFC0FFC0FFC075
:101A7000FFC0FFE0FF60F78073FFFFFFFFFFFFFF86
:101A8000FFFFFFFFFFFFFFFFFFFFFFFFFFFFFFFF66
:101A9000FFFFFFFFFFFFFFFFFFFFFFFFFFFFFFFF56
:101AA000FFFFFFFFFFFFFFFFFF22FA22FA22FA22C9
:101AB000FA22FA22FA22FA22FAA1D1FFFFFFFFFF4F
:101AC000FF0028FFFFFFFF000821B921A160580097
:101AD00018FFFF4049FFFFC2E902FAC1800010FF72
:101AE000FFFFFFFFFF81C161C160500020FFFFFFCA
:101AF000FFFFFFFFFFFFFFA2E122FA22FA22FA22F4
:101B0000FA22FA22FA22FA22FAFFFFE0FFC0FFC00F
:101B1000FFC0FFC0FFC0FF60EF8073FFFFFFFFFF4C
:101B2000FFFFFFA0B580D6E0FFE1FFFFFF406BFFA6
:101B3000FFC0FFC0FFC0FFC0FFC0FFC0FF80F72095
:101B40006BFFFFFFFFFFFFFFFFFFFFFFFFFFFFFF39
:101B5000FFFFFFFFFFFFFFFFFFFFFFFFFFFFFFFF95
:101B6000FFFFFFFFFFFFFFFFFFFFFFFFFFFFFFFF85
:101B7000FF22FA22FA22FA22FA22FA22FA22FA2280
:101B8000FAA1D1FFFFFFFFFFFFFFFFFFFFFFFF6095
:101B90006080680028FFFFFFFF0018FFFF22980207
:101BA000FA02FA22FA0030FFFF0008FFFFFFFF6091
:101BB0006801A100080020FFFFFFFFFFFFA050FF0A
:101BC000FFC078C178C178C178C178C178C178C0C8
:101BD000780018E0FFC0FFC0FFC0FFC0FFC0FFA03B
:101BE000FFE0C5FFFFFFFFFFFFE0FF206B803140FC
:101BF000EFE0FFA1F7FFFFFFFFC0FFC0FFC0FFC086
:101C0000FFC0FFE0FFC0DEA05AFFFFFFFFFFFFFFA6
:101C1000FFFFFFFFFFFFFFFFFFFFFFFFFFFFFFFFD4
:101C2000FFFFFFFFFFFFFFFFFFFFFFFFFFFFFFFFC4
:101C3000FFFFFFFFFFFFFFFFFF22FA22FA22FA2237
:101C4000FA22FA22FA22FA22FAA1D1FFFFFFFFFFBD
:101C5000FFFFFFFFFFFFFF000880700018FFFFFF7E
:101C6000FF0010FFFFFFFF81C1C2E181C10020FF23
:101C7000FFFFFF0010FFFF001000280028FFFFFFFC
:101C8000FFFFFFFFFF0200FFFF0008002800180011
:101C9000200010002000180028FFFFE0FFE0FFE018
:101CA000FFC0FFC0FFC0FFE0FFC0BDFFFFFFFFE0C0
:101CB000FFA09CA010FFFFC09C80F7A0FFFFFFE3E8
:101CC000FFC0FFC0FFC0FFC0FFE0FFE0DEC07B4001
:101CD00008FFFFFFFFFFFFFFFFFFFFFFFFFFFFFF0B
:101CE000FFFFFFFFFFFFFFFFFFFFFFFFFFFFFFFF04
:101CF000FFFFFFFFFFFFFFFFFFFFFFFFFFFFFFFFF4
:101D0000FF22FA22FA22FA22FA22FA22FA22FA22EE
:101D1000FA02F26038FFFFFFFFFFFFFFFFFFFFFF48
:101D2000FFFFFF0028FFFF00100010FFFFA2E121CE
:101D3000A90191C2E941B1FFFFFFFFFFFFFFFF00D3
:101D4000180028FFFF0028FFFFFFFFFFFF3603FCFE
:101D500003BF049B03FFFFFFFFFFFFFFFFFFFFFF2A
:101D6000FFFFFF404A0042408CE0FFC0FFC0FFC0C1
:101D7000FFE0FF60F7FFFF0084C018FFFF6010FF67
:101D8000FFE07BA052FFFFE0FFC0FFC0FFE0FFA02D
:101D9000FF4008FFFFFFFFA010FFFFFFFFFFFFFF57
:101DA000FFFFFFFFFFFFFFFFFFFFFFFFFFFFFFFF43
:101DB000FFFFFFFFFFFFFFFFFFFFFFFFFFFFFFFF33
:101DC000FFFFFFFFFFFFFFFFFF22FA22FA22FA22A6
:101DD000FA22FA22FA22FA22FA22FA22FA22FA4005
:101DE00030FFFFFFFFFFFFFFFFFFFFFFFF001000BF
:101DF000100010FFFFE2F18068FFFFE2E941B9FF48
:101E0000FFFFFF0010FFFFFFFFFFFFFFFFFFFFFFD0
:101E1000FFFC033E043E043E043E049302FFFFFF2A
:101E2000FF01000100A400FFFFFFFFFFFFFFFFFF16
:101E3000FF80F7C0FFC0FFC0FFC0FFC0FFA1F7FFDA
:101E4000FFFFFFFFFFFFFF406BFFFFFFFFE2FFC051
:101E5000FFC0FFC0FFE0FF00846008FFFFFFFFFF3F
:101E6000FFFFFFFFFFFFFFFFFFFFFFFFFFFFFFFF82
:101E7000FFFFFFFFFFFFFFFFFFFFFFFFFFFFFFFF72
:101E8000FFFFFFFFFFFFFFFFFFFFFFFFFFFFFFFF62
:101E9000FF22FA22FA22FA22FA22FA22FA22FA225D
:101EA000FA22FA22FA22FAE088FFFFFFFFFFFFFF83
:101EB000FF0018001000200008FFFFFFFF02FA01DA
:101EC00091FFFFC2E922F2FFFFFFFFFFFFFFFFFFCD
:101ED000FFFFFFFFFFFFFF98033E043E043E043E6A
:101EE000043E047803FFFF4300FFFFFFFFFFFFBA3C
:101EF000033E041D04FFFFFFFF21E7C0FFC0FFC03A
:101F0000FFC0FFC0FFC0FFC0FF86F7FFFFFFFFFF5E
:101F1000FFF3DEC0FFC0FFC0FFC0FFE0FFE0DE80D8
:101F2000314008FFFFFFFFFFFFFFFFFFFFFFFFFF45
:101F3000FFFFFFFFFFFFFFFFFFFFFFFFFFFFFFFFB1
:101F4000FFFFFFFFFFFFFFFFFFFFFFFFFFFFFFFFA1
:101F5000FFFFFFFFFFFFFFFFFF22FA22FA22FA2214
:101F6000FA22FA22FA22FA22FA22FA22FA22FA02B1
:101F7000FAFFFFFFFFFFFFFFFF0008FFFFFFFFFF6C
:101F8000FF0008FFFF22FAA078FFFFE2F122F2FF34
:101F9000FFFFFFFFFFFFFFFFFFFFFFFFFFFFFFFF51
:101FA000FF3E043E043E043E043E043E041D045F26
:101FB000043D04FC03F5023E043E043E043E04BB23
:101FC00003FFFF40EFC0FFC0FFC0FFC0FFC0FFC066
:101FD000FFC0FFC0FFC0FFC0FFC0FFC0FFC0FFC009
:101FE000FFC0FFC0FFC07BFFFFFFFFFFFFFFFFFF42
:101FF000FFFFFFFFFFFFFFFFFFFFFFFFFFFFFFFFF1
:10200000FFFFFFFFFFFFFFFFFFFFFFFFFFFFFFFFE0
:10201000FFFFFFFFFFFFFFFFFFFFFFFFFFFFFFFFD0
:10202000FF22FA22FA22FA22FA22FA22FA22FA22CB
:10203000FA22FA22FA22FA22FA0191FFFFFFFFFFA9
:10204000FF0010FFFF00100018FFFFFFFFA1D920C5
:1020500038FFFF61C941B9FFFFFFFF0008FFFFFF25
:10206000FFFFFF01002300FFFF3E043E043E043E4D
:10207000043E043E043E043E043E043E043E043E50
:10208000043E043E043E045F04B302FFFFC0FFC0F1
:10209000FFC0FFC0FFC0FFC0FFC0FFC0FFC0FFC048
:1020A000FFC0FFC0FFC0FFC0FFC0FFC0FFA0B5FF63
:1020B000FFFFFFFFFFFFFFFFFFFFFFFFFFFFFFFF30
:1020C000FFFFFFFFFFFFFFFFFFFFFFFFFFFFFFFF20
:1020D000FFFFFFFFFFFFFFFFFFFFFFFFFFFFFFFF10
:1020E000FFFFFFFFFFFFFFFFFF22FA22FA22FA2283
:1020F000FA22FA22FA22FA22FA22FA22FA22FA2200
:10210000FA02FA0028FFFFFFFFFFFF00100010FF98
:10211000FFC4FA42FA22FAC080FFFFA2F122FA229B
:10212000FA63FAFFFFFFFFFFFFFFFFFFFFFFFF3E26
:10213000043E043E043E043E043E043E043E043E8F
:10214000043E043F043E043E043E043E043E043E7E
:10215000044300FFFFC0FFC0FFC0FFC0FFC0FFC0BF
:10216000FFC0FFC0FFC0FFC0FFC0FFC0FFC0FFC077
:10217000FFC0FFE0FF60D62021FFFFFFFFFFFFFF52
:10218000FFFFFFFFFFFFFFFFFFFFFFFFFFFFFFFF5F
:10219000FFFFFFFFFFFFFFFFFFFFFFFFFFFFFFFF4F
:1021A000FFFFFFFFFFFFFFFFFFFFFFFFFFFFFFFF3F
:1021B000FF22FA22FA22FA22FA22FA22FA22FA223A
:1021C000FA22FA22FA22FA22FA61B10018FFFFFF7E
:1021D000FFFFFF001000080028404840504050001A
:1021E00030FFFF2048405040488078CB593E043EA5
:1021F000049102FFFF3E043E043E043E043E043EC2
:10220000043E043E043E043E043E043E043E043EBE
:10221000043E043E04BF0429010100E1FFC0FFC0E9
:10222000FFC0FFC0FFC0FFC0FFE0FFE0FFE0FFE036
:10223000FFE0FFC0FFC0FFC0FFC0FFE0FFE0A4FF62
:10224000FFFFFFFFFFFFFFFFFFFFFFFFFFFFFFFF9E
:10225000FFFFFFFFFFFFFFFFFFFFFFFFFFFFFFFF8E
:10226000FFFFFFFFFFFFFFFFFFFFFFFFFFFFFFFF7E
:10227000FFFFFFFFFFFFFFFFFFA2F122FA22FA227A
:10228000FA22FA22FA22FA22FA22FA22FA22FA226E
:10229000FA0008FFFFFFFFFFFF0018FFFFFFFF002E
:1022A00018FFFFFFFFFFFFFFFFFFFFFFFFFFFFFF25
:1022B000FF964B3E043E043E043E043E043E043E74
:1022C000043E043E043E043E043E043E043E043EFE
:1022D000043E043E043E043E043E043E04DF04C7C4
:1022E00000FFFFFFFFE0C560EFE0FFE0FFE0FF2041
:1022F000C6C05A406B406BC05A80B5C0FFE0FFE0DB
:10230000FF20E72084FFFF6008FFFFFFFFFFFFFFC4
:10231000FFFFFFFFFFFFFFFFFFFFFFFFFFFFFFFFCD
:10232000FFFFFFFFFFFFFFFFFFFFFFFFFFFFFFFFBD
:10233000FFFFFFFFFFFFFFFFFFFFFFFFFFFFFFFFAD
:10234000FFFFFF02FA22FA22FA22FA22FA22FA22E6
:10235000FA22FA22FA22FA22FA81B9FFFFFFFFFFDE
:10236000FFFFFFFFFFFFFFFFFFFFFFFFFFFFFFFF7D
:10237000FFFFFFFFFFFFFF3F053E043E043E043E1C
:10238000043E043E043E043E043E043E045F04BF9B
:1023900004DF047F049F04BF045F043E043E043E48
:1023A000043E043E043E049F047803FFFFFFFF80C9
:1023B0007360AD60D660D6A010FFFFFFFFFFFFFF88
:1023C000FFFFFFE1FFA0F7E07B8031FFFF80D5FF3B
:1023D000FFFFFFFFFFFFFFFFFFFFFFFFFFFFFFFF0D
:1023E000FFFFFFFFFFFFFFFFFFFFFFFFFFFFFFFFFD
:1023F000FFFFFFFFFFFFFFFFFFFFFFFFFFFFFFFFED
:10240000FFFFFFFFFFFFFFFFFFFFFFE2F922FA22BE
:10241000FA22FA22FA22FA22FA22FA22FA22FA22DC
:10242000FA22FA22FAFFFFFFFFFFFFFFFFFFFFFF85
:10243000FFFFFFFFFFFFFFFFFFFFFFFFFFFFFF3E6D
:10244000043E043E043E043E043E043E043E043E7C
:10245000043E045F043E048C0164006400430029D0
:102460000179039F043E043E043E043E043E043EC4
:10247000049A03FFFFFFFFFFFF2029604A8031FF1E
:10248000FFFFFFFFFFFFFFFFFFFFFF20008031FF87
:10249000FFFFFFFFFFFFFFFFFFFFFFFFFFFFFFFF4C
:1024A000FFFFFFFFFFFFFFFFFFFFFFFFFFFFFFFF3C
:1024B000FFFFFFFFFFFFFFFFFFFFFFFFFFFFFFFF2C
:1024C000FFFFFFFFFFFFFFFFFFFFFFFFFFFFFFFF1C
:1024D000FFFFFFA2F122FA22FA22FA22FA22FA22BE
:1024E000FA22FA22FA22FA22FA22FA22FA22FA230B
:1024F000FA22FA02FA02FA02FAFFFFFFFFFFFFFFD9
:10250000FFFFFF0200FFFF3D041E043E043E043EA9
:10251000043E043E043E043F043E049302FFFF01D8
:1025200000FFFFFFFFFFFFFFFFFFFF4B015E043EC9
:10253000043E043E043E043E045F045F041D04FCAC
:1025400003F3025F0CFFFFFFFFFFFFFFFFFFFFFF33
:10255000FFFFFFFFFFFFFFFFFFFFFFFFFFFFFFFF8B
:10256000FFFFFFFFFFFFFFFFFFFFFFFFFFFFFFFF7B
:10257000FFFFFFFFFFFFFFFFFFFFFFFFFFFFFFFF6B
:10258000FFFFFFFFFFFFFFFFFFFFFFFFFFFFFFFF5B
:10259000FFFFFFFFFFFFFFFFFFFFFFE2F902FA224D
:1025A000FA22FA22FA22FA22FA22FA22FA22FA224B
:1025B000FA22FA22FA22FA22FA22FA22FA22FA025B
:1025C000FA22FA41A9FFFFFFFFFFFFFFFF0200FF12
:1025D000FF10023E043E043E043E043E043E047FDF
:1025E000046B01FFFF0100A400DB034A01FFFFFFB2
:1025F000FF22008A0193023E043E043E043E043E54
:10260000043E043E043E045F0479035102FFFFFFD1
:10261000FFFFFFFFFFFFFFFFFFFFFFFFFFFFFFFFCA
:10262000FFFFFFFFFFFFFFFFFFFFFFFFFFFFFFFFBA
:10263000FFFFFFFFFFFFFFFFFFFFFFFFFFFFFFFFAA
:10264000FFFFFFFFFFFFFFFFFFFFFFFFFFFFFFFF9A
:10265000FFFFFFFFFFFFFFFFFFFFFFFFFFFFFFFF8A
:10266000FFFFFFFFFFA2E902FA22FA22FA22FA2272
:10267000FA22FA22FA22FA22FA22FA22FA22FA227A
:10268000FA22FA22FA22FA22FA22FAC0800028FF5D
:10269000FFFFFF02000200FFFFFFFF1D043E043E9C
:1026A000043E043E047F0430022200FFFF64000168
:1026B000001D04C700FFFFFFFF01000F02C700FC61
:1026C000033F043E043E043E043E043E043E043EFA
:1026D000045F042901FFFFFFFFFFFFFFFFFFFFFF74
:1026E000FFFFFFFFFFFFFFFFFFFFFFFFFFFFFFFFFA
:1026F000FFFFFFFFFFFFFFFFFFFFFFFFFFFFFFFFEA
:10270000FFFFFFFFFFFFFFFFFFFFFFFFFFFFFFFFD9
:10271000FFFFFFFFFFFFFFFFFFFFFFFFFFFFFFFFC9
:10272000FFFFFFFFFFFFFFFFFFFFFFFFFFFFFFC0F8
:102730009002F222FA22FA22FA22FA22FA22FA224B
:10274000FA22FA22FA22FA22FA22FA22FA22FA22A9
:10275000FA22FAA1D12040FFFFFFFFFFFFFFFFFF9A
:10276000FFFFFFFC033E043E043E043E041D04083C
:1027700001FFFFFFFFFC035E0402002200FFFFFFDA
:10278000FF3E04FFFF2200FFFF1D043F043E043E06
:10279000043E043E043E043E049F04E800FFFFFFA5
:1027A000FFFFFFFFFFFFFFFFFFFFFFFFFFFFFFFF39
:1027B000FFFFFFFFFFFFFFFFFFFFFFFFFFFFFFFF29
:1027C000FFFFFFFFFFFFFFFFFFFFFFFFFFFFFFFF19
:1027D000FFFFFFFFFFFFFFFFFFFFFFFFFFFFFFFF09
:1027E000FFFFFFFFFFFFFFFFFFFFFFFFFFFFFFFFF9
:1027F000FFFFFFFFFFFFFFFFFFFFFFE2E102F2220B
:10280000FA22FA22FA22FA22FA22FA22FA22FA22E8
:10281000FA22FA22FA22FA22FA22FA22FA02FAE238
:10282000F121A1FFFFFFFFFFFFFFFF1D043E043E5C
:10283000043E043E04D5020200FFFFFFFFF402FF46
:10284000046400FFFF8300FFFF5E04EF01FFFFFF52
:10285000FF1D043E043E043E043E043E043E045F6D
:1028600004BF0409014200FFFFFFFFFFFFFFFFFF5E
:10287000FFFFFFFFFFFFFFFFFFFFFFFFFFFFFFFF68
:10288000FFFFFFFFFFFFFFFFFFFFFFFFFFFFFFFF58
:10289000FFFFFFFFFFFFFFFFFFFFFFFFFFFFFFFF48
:1028A000FFFFFFFFFFFFFFFFFFFFFFFFFFFFFFFF38
:1028B000FFFFFFFFFFFFFFFFFFFFFFFFFFFFFFFF28
:1028C000FFFFFFFFFF2199A1D122FA22FA22FA226B
:1028D000FA22FA22FA22FA22FA22FA22FA22FA2218
:1028E000FA22FA22FA22FA02F221A1FFFFFFFFFFE9
:1028F000FFFFFF5F043E043E043E043E04B302FFBC
:10290000FFFFFF0100FFFFFF042300FFFFFFFFFFAA
:102910000779036500FFFFFFFF3E043E043E043ECF
:10292000043E043E04BF04580330026500FFFFFF6D
:10293000FFFFFFFFFFFFFFFFFFFFFFFFFFFFFFFFA7
:10294000FFFFFFFFFFFFFFFFFFFFFFFFFFFFFFFF97
:10295000FFFFFFFFFFFFFFFFFFFFFFFFFFFFFFFF87
:10296000FFFFFFFFFFFFFFFFFFFFFFFFFFFFFFFF77
:10297000FFFFFFFFFFFFFFFFFFFFFFFFFFFFFFFF67
:10298000FFFFFFFFFFFFFFFFFFFFFFFFFFFFFFC096
:10299000700191E2E922FA22FA22FA22FA22FA22BC
:1029A000FA22FA22FA22FA22FA22FA22FA22FA0267
:1029B000F221A10300FFFF1D043E043E043E043E3D
:1029C000043E043E04B402FFFFFFFFFFFFFFFF7F52
:1029D00004B302FF07BF048C0165000100FFFFFF85
:1029E000FFFC033E043E043E043E047F04300243E9
:1029F0000023000200FFFFFFFFFFFFFFFFFFFFFFBD
:102A0000FFFFFFFFFFFFFFFFFFFFFFFFFFFFFFFFD6
:102A1000FFFFFFFFFFFFFFFFFFFFFFFFFFFFFFFFC6
:102A2000FFFFFFFFFFFFFFFFFFFFFFFFFFFFFFFFB6
:102A3000FFFFFFFFFFFFFFFFFFFFFFFFFFFFFFFFA6
:102A4000FFFFFFFFFFFFFFFFFFFFFFFFFFFFFFFF96
:102A5000FFFFFFFFFFFFFFFFFFFFFF604081C90295
:102A6000FA22FA22FA22FA22FA22FA22FA22FA2286
:102A7000FA22FA22FA22FA02F221A1FFFF3E043FD3
:102A8000043E043E043E043E043E043E04D50223BC
:102A900000FFFF0100FFFF3E045F042A0102000265
:102AA00000FFFFFFFFFFFFFFFF3E043E043E043E2A
:102AB000043E04BF040901FFFFFFFFFFFFFFFFFF0C
:102AC000FFFFFFFFFFFFFFFFFFFFFFFFFFFFFFFF16
:102AD000FFFFFFFFFFFFFFFFFFFFFFFFFFFFFFFF06
:102AE000FFFFFFFFFFFFFFFFFFFFFFFFFFFFFFFFF6
:102AF000FFFFFFFFFFFFFFFFFFFFFFFFFFFFFFFFE6
:102B0000FFFFFFFFFFFFFFFFFFFFFFFFFFFFFFFFD5
:102B1000FFFFFFFFFFFFFFFFFFFFFFFFFFFFFFFFC5
:102B2000FFFFFFFFFFFFFF61B1A1D122FA22FA22CE
:102B3000FA22FA22FA22FA22FA22FA22FA22FA02D5
:102B4000F221A1FFFF3E043E043E043E043E043E4B
:102B5000043E043E04FC035002FFFFFFFFFFFF3F63
:102B6000058500FFFFFFFFFFFF0100FFFFFFFFFFE5
:102B7000FF1E043E043E043E043E04FF04A600FF84
:102B8000FFFFFFFFFFFFFFFFFFFFFFFFFFFFFFFF55
:102B9000FFFFFFFFFFFFFFFFFFFFFFFFFFFFFFFF45
:102BA000FFFFFFFFFFFFFFFFFFFFFFFFFFFFFFFF35
:102BB000FFFFFFFFFFFFFFFFFFFFFFFFFFFFFFFF25
:102BC000FFFFFFFFFFFFFFFFFFFFFFFFFFFFFFFF15
:102BD000FFFFFFFFFFFFFFFFFFFFFFFFFFFFFFFF05
:102BE000FFFFFFFFFFFFFFFFFFFFFFFFFFFFFFFFF5
:102BF000FF002861B1E2E922FA22FA22FA22FA223F
:102C0000FA22FA22FA22FA02F221A1FFFF3E043E42
:102C1000043E043E043E043E043E043E045F04378A
:102C200003A5008300FFFF09017202FFFFFFFFFF02
:102C3000FFFFFFFFFFC700FFFF1D043E043E043EF1
:102C4000045F045E042200FFFFFFFFFFFFFFFFFFA2
:102C5000FFFFFFFFFFFFFFFFFFFFFFFFFFFFFFFF84
:102C6000FFFFFFFFFFFFFFFFFFFFFFFFFFFFFFFF74
:102C7000FFFFFFFFFFFFFFFFFFFFFFFFFFFFFFFF64
:102C8000FFFFFFFFFFFFFFFFFFFFFFFFFFFFFFFF54
:102C9000FFFFFFFFFFFFFFFFFFFFFFFFFFFFFFFF44
:102CA000FFFFFFFFFFFFFFFFFFFFFFFFFFFFFFFF34
:102CB000FFFFFFFFFFFFFFFFFFFFFF00106050015E
:102CC0009942FA22FA22FA22FA22FA22FA22FA0285
:102CD000F221A1FFFF1D043F043E045F043E043EB9
:102CE000043E043E043E043E04DB03FFFF2300FFDA
:102CF000FFBF040901FFFFFFFFFFFF4300FFFFFCD1
:102D0000033E043E043E043E043E045F04B402FF5E
:102D1000FFFFFFFFFFFFFFFFFFFFFFFFFFFFFFFFC3
:102D2000FFFFFFFFFFFFFFFFFFFFFFFFFFFFFFFFB3
:102D3000FFFFFFFFFFFFFFFFFFFFFFFFFFFFFFFFA3
:102D4000FFFFFFFFFFFFFFFFFFFFFFFFFFFFFFFF93
:102D5000FFFFFFFFFFFFFFFFFFFFFFFFFFFFFFFF83
:102D6000FFFFFFFFFFFFFFFFFFFFFFFFFFFFFFFF73
:102D7000FFFFFFFFFFFFFFFFFFFFFFFFFFFFFFFF63
:102D8000FFFFFFFFFFFFFFFFFFA078C2D902FA227B
:102D9000FA22FA22FA22FA02F221A1FFFF7F041D91
:102DA00004DA0316033F043E043E043E043E043EA0
:102DB000043E041D049903D50201002200FFFFFF19
:102DC000FFFFFFFFFFFC033E043E043E043E043EC3
:102DD000043E043E043E04FC03F201FFFFFFFFFF3C
:102DE000FFFFFFFFFFFFFFFFFFFFFFFFFFFFFFFFF3
:102DF000FFFFFFFFFFFFFFFFFFFFFFFFFFFFFFFFE3
:102E0000FFFFFFFFFFFFFFFFFFFFFFFFFFFFFFFFD2
:102E1000FFFFFFFFFFFFFFFFFFFFFFFFFFFFFFFFC2
:102E2000FFFFFFFFFFFFFFFFFFFFFFFFFFFFFFFFB2
:102E3000FFFFFFFFFFFFFFFFFFFFFFFFFFFFFFFFA2
:102E4000FFFFFFFFFFFFFFFFFFFFFFFFFFFFFFFF92
:102E5000FFFFFF404061A981C102F222FA22FA027B
:102E6000FA41A1FFFFC700A6000100FFFFBB035FFF
:102E7000043E043E043E043E043E043E049A0372B3
:102E8000026300FFFFFFFFFFFFDC033E043E043E42
:102E9000043E043E043E043E043E043E043E041D43
:102EA000048C01FFFFFFFFFFFFFFFFFFFFFFFFFF9E
:102EB000FFFFFFFFFFFFFFFFFFFFFFFFFFFFFFFF22
:102EC000FFFFFFFFFFFFFFFFFFFFFFFFFFFFFFFF12
:102ED000FFFFFFFFFFFFFFFFFFFFFFFFFFFFFFFF02
:102EE000FFFFFFFFFFFFFFFFFFFFFFFFFFFFFFFFF2
:102EF000FFFFFFFFFFFFFFFFFFFFFFFFFFFFFFFFE2
:102F0000FFFFFFFFFFFFFFFFFFFFFFFFFFFFFFFFD1
:102F1000FFFFFFFFFFFFFFFFFFFFFFFFFFFFFF6060
:102F200050E1888058A068A0706050FFFF0400FF47
:102F3000FFFFFFFFFF3D043E043E043E043E043E0F
:102F4000043E043E045F045F049F045F043E043EAD
:102F5000043E043E043E043E043E043E043E043E61
:102F6000043E043E043E0417030100FFFFFFFFFF81
:102F7000FFFFFFFFFFFFFFFFFFFFFFFFFFFFFFFF61
:102F8000FFFFFFFFFFFFFFFFFFFFFFFFFFFFFFFF51
:102F9000FFFFFFFFFFFFFFFFFFFFFFFFFFFFFFFF41
:102FA000FFFFFFFFFFFFFFFFFFFFFFFFFFFFFFFF31
:102FB000FFFFFFFFFFFFFFFFFFFFFFFFFFFFFFFF21
:102FC000FFFFFFFFFFFFFFFFFFFFFFFFFFFFFFFF11
:102FD000FFFFFFFFFFFFFFFFFFFFFFFFFFFFFFFF01
:102FE000FFFFFFFFFFFFFFFFFFFFFFFFFF002000CE
:102FF00020002005000100FFFF0100FFFFFFFF1C74
:10300000043E043E043E043E043E043E043E043EB0
:10301000043E043E043E043E043E043E043E043EA0
:10302000043E043E043E043E043E043E04DF0485A8
:1030300000FFFFFFFFFFFFFFFFFFFFFFFFFFFFFF9F
:10304000FFFFFFFFFFFFFFFFFFFFFFFFFFFFFFFF90
:10305000FFFFFFFFFFFFFFFFFFFFFFFFFFFFFFFF80
:10306000FFFFFFFFFFFFFFFFFFFFFFFFFFFFFFFF70
:10307000FFFFFFFFFFFFFFFFFFFFFFFFFFFFFFFF60
:10308000FFFFFFFFFFFFFFFFFFFFFFFFFFFFFFFF50
:10309000FFFFFFFFFFFFFFFFFFFFFFFFFFFFFFFF40
:1030A000FFFFFFFFFFFFFFFFFFFFFFFFFFFFFFFF30
:1030B000FFFFFFFFFFFFFFFFFFFFFF0100FFFFFF1D
:1030C000FFFFFF0100FFFFFFFF3E043E043E043E02
:1030D000043E043E043E043E043E043E043E043EE0
:1030E000043E043E043E043E045F04BA036B01BA8E
:1030F00003DC035F044A01FFFFFFFFFFFFFFFFFF49
:10310000FFFFFFFFFFFFFFFFFFFFFFFFFFFFFFFFCF
:10311000FFFFFFFFFFFFFFFFFFFFFFFFFFFFFFFFBF
:10312000FFFFFFFFFFFFFFFFFFFFFFFFFFFFFFFFAF
:10313000FFFFFFFFFFFFFFFFFFFFFFFFFFFFFFFF9F
:10314000FFFFFFFFFFFFFFFFFFFFFFFFFFFFFFFF8F
:10315000FFFFFFFFFFFFFFFFFFFFFFFFFFFFFFFF7F
:10316000FFFFFFFFFFFFFFFFFFFFFFFFFFFFFFFF6F
:10317000FFFFFFFFFFFFFFFFFFFFFFFFFFFFFFFF5F
:10318000FFFFFFFFFF0100FFFF0100FFFFFFFFFC4C
:10319000033E043E043E043E043E043E043E043E20
:1031A000043E043E043E043E043E043E043E049FAE
:1031B0000472028500FFFFFFFFEE0108010100FF1E
:1031C000FFFFFFFFFFFFFFFFFFFFFFFFFFFFFFFF0F
:1031D000FFFFFFFFFFFFFFFFFFFFFFFFFFFFFFFFFF
:1031E000FFFFFFFFFFFFFFFFFFFFFFFFFFFFFFFFEF
:1031F000FFFFFFFFFFFFFFFFFFFFFFFFFFFFFFFFDF
:10320000FFFFFFFFFFFFFFFFFFFFFFFFFFFFFFFFCE
:10321000FFFFFFFFFFFFFFFFFFFFFFFFFFFFFFFFBE
:10322000FFFFFFFFFFFFFFFFFFFFFFFFFFFFFFFFAE
:10323000FFFFFFFFFFFFFFFFFFFFFFFFFFFFFFFF9E
:10324000FFFFFFFFFFFFFFFFFFFFFFFFFFFFFFFF8E
:10325000FFFFFFFFFFFFFF3E043E043E043E043E2F
:10326000043E049F049F045F043E043E043E043E6B
:10327000043E043E04BF044A012300FFFFFFFFFF9A
:10328000FFFFFFFFFF0100FFFFFFFFFFFFFFFFFF4B
:10329000FFFFFFFFFFFFFFFFFFFFFFFFFFFFFFFF3E
:1032A000FFFFFFFFFFFFFFFFFFFFFFFFFFFFFFFF2E
:1032B000FFFFFFFFFFFFFFFFFFFFFFFFFFFFFFFF1E
:1032C000FFFFFFFFFFFFFFFFFFFFFFFFFFFFFFFF0E
:1032D000FFFFFFFFFFFFFFFFFFFFFFFFFFFFFFFFFE
:1032E000FFFFFFFFFFFFFFFFFFFFFFFFFFFFFFFFEE
:1032F000FFFFFFFFFFFFFFFFFFFFFFFFFFFFFFFFDE
:10330000FFFFFFFFFFFFFFFFFFFFFFFFFFFFFFFFCD
:10331000FFFFFFFFFF0100FFFFFFFFFFFFFFFF9A1F
:1033200003FC035F043F043F049F042200A600F651
:1033300002FC031D043F043E043E043E049F04CEF1
:1033400001FFFFFFFFFFFFFFFFFFFFFFFFFFFFFF8B
:10335000FFFFFFFFFFFFFFFFFFFFFFFFFFFFFFFF7D
:10336000FFFFFFFFFFFFFFFFFFFFFFFFFFFFFFFF6D
:10337000FFFFFFFFFFFFFFFFFFFFFFFFFFFFFFFF5D
:10338000FFFFFFFFFFFFFFFFFFFFFFFFFFFFFFFF4D
:10339000FFFFFFFFFFFFFFFFFFFFFFFFFFFFFFFF3D
:1033A000FFFFFFFFFFFFFFFFFFFFFFFFFFFFFFFF2D
:1033B000FFFFFFFFFFFFFFFFFFFFFFFFFFFFFFFF1D
:1033C000FFFFFFFFFFFFFFFFFFFFFFFFFFFFFFFF0D
:1033D000FFFFFFFFFFFFFFFFFFFFFF0100FFFFFFFA
:1033E000FF01000200FFFFFFFF0901770337035FC2
:1033F00004E8000100FFFFFFFFFFFFEF015F043E55
:10340000043E043E047F049A03FFFFFFFFFFFFFF1B
:10341000FFFFFFFFFFFFFFFFFFFFFFFFFFFFFFFFBC
:10342000FFFFFFFFFFFFFFFFFFFFFFFFFFFFFFFFAC
:10343000FFFFFFFFFFFFFFFFFFFFFFFFFFFFFFFF9C
:10344000FFFFFFFFFFFFFFFFFFFFFFFFFFFFFFFF8C
:10345000FFFFFFFFFFFFFFFFFFFFFFFFFFFFFFFF7C
:10346000FFFFFFFFFFFFFFFFFFFFFFFFFFFFFFFF6C
:10347000FFFFFFFFFFFFFFFFFFFFFFFFFFFFFFFF5C
:10348000FFFFFFFFFFFFFFFFFFFFFFFFFFFFFFFF4C
:10349000FFFFFFFFFFFFFFFFFFFFFFFFFFFFFFFF3C
:1034A000FFFFFFFFFFFFFFFFFF0100FFFF0200C65E
:1034B00000FFFF01002901E7002200FFFF0200FFDB
:1034C000FFFFFF9F055F045F047F04FF04DB03E849
:1034D00000FFFFFFFFFFFFFFFFFFFFFFFFFFFFFFFB
:1034E000FFFFFFFFFFFFFFFFFFFFFFFFFFFFFFFFEC
:1034F000FFFFFFFFFFFFFFFFFFFFFFFFFFFFFFFFDC
:10350000FFFFFFFFFFFFFFFFFFFFFFFFFFFFFFFFCB
:10351000FFFFFFFFFFFFFFFFFFFFFFFFFFFFFFFFBB
:10352000FFFFFFFFFFFFFFFFFFFFFFFFFFFFFFFFAB
:10353000FFFFFFFFFFFFFFFFFFFFFFFFFFFFFFFF9B
:10354000FFFFFFFFFFFFFFFFFFFFFFFFFFFFFFFF8B
:10355000FFFFFFFFFFFFFFFFFFFFFFFFFFFFFFFF7B
:10356000FFFFFFFFFFFFFFFFFFFFFFFFFFFFFF0169
:1035700000FFFFFFFFFFFFFFFFFFFFFFFFFFFFFF5A
:10358000FF0200FFFFFFFFFFFFFFFF8200D502D514
:10359000021002850002002200FFFFFFFFFFFFFF75
:1035A000FFFFFFFFFFFFFFFFFFFFFFFFFFFFFFFF2B
:1035B000FFFFFFFFFFFFFFFFFFFFFFFFFFFFFFFF1B
:1035C000FFFFFFFFFFFFFFFFFFFFFFFFFFFFFFFF0B
:1035D000FFFFFFFFFFFFFFFFFFFFFFFFFFFFFFFFFB
:1035E000FFFFFFFFFFFFFFFFFFFFFFFFFFFFFFFFEB
:1035F000FFFFFFFFFFFFFFFFFFFFFFFFFFFFFFFFDB
:10360000FFFFFFFFFFFFFFFFFFFFFFFFFFFFFFFFCA
:10361000FFFFFFFFFFFFFFFFFFFFFFFFFFFFFFFFBA
:10362000FFFFFFFFFFFFFFFFFFFFFFFFFFFFFFFFAA
:10363000FFFFFFFFFF0100FFFFFFFFFFFF0100FF94
:10364000FFFFFFFFFF0100FFFFFFFFFFFFFFFFFF87
:10365000FFFFFFFFFFFFFFFFFFFFFFFFFFFFFFFF7A
:10366000FFFFFFFFFFFFFFFFFFFFFFFFFFFFFFFF6A
:10367000FFFFFFFFFFFFFFFFFFFFFFFFFFFFFFFF5A
:10368000FFFFFFFFFFFFFFFFFFFFFFFFFFFFFFFF4A
:10369000FFFFFFFFFFFFFFFFFFFFFFFFFFFFFFFF3A
:1036A000FFFFFFFFFFFFFFFFFFFFFFFFFFFFFFFF2A
:1036B000FFFFFFFFFFFFFFFFFFFFFFFFFFFFFFFF1A
:1036C000FFFFFFFFFFFFFFFFFFFFFFFFFFFFFFFF0A
:1036D000FFFFFFFFFFFFFFFFFFFFFFFFFFFFFFFFFA
:1036E000FFFFFFFFFFFFFFFFFFFFFFFFFFFFFFFFEA
:1036F000FFFFFFFFFFFFFFFFFFFFFF0200FFFFFFD6
:10370000FFFFFFFFFF0300FFFFFFFFFFFF0100FFC1
:10371000FFFFFFFFFFFFFF0100FFFF0100FFFFFFB3
:10372000FFFFFFFFFFFFFFFFFFFFFFFFFFFFFFFFA9
:10373000FFFFFFFFFFFFFFFFFFFFFFFFFFFFFFFF99
:10374000FFFFFFFFFFFFFFFFFFFFFFFFFFFFFFFF89
:10375000FFFFFFFFFFFFFFFFFFFFFFFFFFFFFFFF79
:10376000FFFFFFFFFFFFFFFFFFFFFFFFFFFFFFFF69
:10377000FFFFFFFFFFFFFFFFFFFFFFFFFFFFFFFF59
:10378000FFFFFFFFFFFFFFFFFFFFFFFFFFFFFFFF49
:10379000FFFFFFFFFFFFFFFFFFFFFFFFFFFFFFFF39
:1037A000FFFFFFFFFFFFFFFFFF45B4FFFFFFFFFF2E
:1037B000FF45BC65BC84C484C484C465BC45BCFFEF
:1037C000FFFFFFFFFF45B4FFFFFFFFFFFFFFFFFF0E
:1037D000FFFFFFFFFFFFFFFFFFFFFFFFFFFFFFFFF9
:1037E000FFFFFFFFFFFFFFFFFFFFFFFFFFFFFFFFE9
:1037F000FFFFFFFFFFFFFFFFFFFFFFFFFFFFFFFFD9
:10380000FFFFFFFFFFFFFFFFFFFFFFFFFFFFFFFFC8
:10381000FFFFFFFFFFFFFFFFFFFFFFFFFFFFFFFFB8
:10382000FFFFFFFFFFFFFF65BC84C465BCC79B496A
:1038300083EB728C626D5A4D5A6C5AAC6AEA7269AB
:103840008BE7A384C484C426B4FFFF45B4FFFFFF05
:10385000FFFFFFFFFFFFFFFFFFFFFFFFFFFFFFFF78
:10386000FFFFFFFFFFFFFFFFFFFFFFFFFFFFFFFF68
:10387000FFFFFFFFFFFFFFFFFFFFFFFFFFFFFFFF58
:10388000FFFFFFFFFFFFFFFFFFFFFFFFFFFFFFFF48
:10389000FFFFFFFFFFFFFFFFFFFFFFFFFF45B4FF3D
:1038A000FFFFFF84C406AC0A7B0E4A512110193079
:1038B000215129B131D1397129B3525029512931BE
:1038C00021112171294D52498345BC65BCFFFFFF81
:1038D000FFFFFFFFFFFFFFFFFFFFFFFFFFFFFFFFF8
:1038E000FFFFFFFFFFFFFFFFFFFFFFFFFFFFFFFFE8
:1038F000FFFFFFFFFFFFFFFFFFFFFFFFFFFFFFFFD8
:10390000FFFFFFFFFFFFFFFFFFFFFFFFFFFFFFFFC7
:10391000FFFFFFFFFFFFFFFFFFFFFFFFFF06A48486
:10392000C488930E4A31211019B452B352FBBDF62C
:103930007BF67B788C9AB598949AB5578C3342175E
:10394000843784734A3242302151216C5AE7A38470
:10395000C4FFFF45B4FFFFFFFFFFFFFFFFFFFFFFB7
:10396000FFFFFFFFFFFFFFFFFFFFFFFFFFFFFFFF67
:10397000FFFFFFFFFFFFFFFFFFFFFFFFFFFFFFFF57
:10398000FFFFFFFFFFFFFFFFFFFFFFFFFFFFFFFF47
:10399000FFFFFFFFFFFFFF45B4FFFF84C4A893CFE5
:1039A0003910217129D45A7CCED89CF239B894D1DF
:1039B000395CCEF99CFBBD7AADB6737AADF0187860
:1039C0008C3784B894F67B17843563502931214DA8
:1039D0005206AC65BCFFFF45B4FFFFFFFFFFFFFFD2
:1039E000FFFFFFFFFFFFFFFFFFFFFFFFFFFFFFFFE7
:1039F000FFFFFFFFFFFFFFFFFFFFFFFFFFFFFFFFD7
:103A0000FFFFFFFFFFFFFFFFFFFFFFFFFFFFFFFFC6
:103A1000FFFFFFFFFFFFFF45B426B44D523121F2F7
:103A200039778C14633021D89C15631563B89417CB
:103A30008437847AAD9894788C5CCE19A53563F977
:103A40009C7AADD89CD45ABDD6D1399131178430E7
:103A5000215121EB7265BCFFFF45B4FFFFFFFFFF63
:103A6000FFFFFFFFFFFFFFFFFFFFFFFFFFFFFFFF66
:103A7000FFFFFFFFFFFFFFFFFFFFFFFFFFFFFFFF56
:103A8000FFFFFFFFFFFFFFFFFFFFFFFFFFFFFFFF46
:103A9000FFFFFFFFFF65BC889370293021F239BA20
:103AA000B5578CBDD65029D45A35633BC693525373
:103AB0004A7129102130213121F018102150295547
:103AC0006B32421BC612421784302159ADF67B502F
:103AD00029B1313021CF3906AC45B4FFFFFFFFFFDC
:103AE000FFFFFFFFFFFFFFFFFFFFFFFFFFFFFFFFE6
:103AF000FFFFFFFFFFFFFFFFFFFFFFFFFFFFFFFFD6
:103B0000FFFFFFFFFFFFFFFFFFFFFFFFFFFFFF655F
:103B1000B4FFFF84C40A7B312193523784F01839F3
:103B2000A5778CD89C102150297129112170292D3D
:103B300052CB6A2A83698B698B498B0A7BAC6A0EEC
:103B40004A51291021D1399131F45ABAB5B67310BE
:103B500021FBBD178450295129A89B65BCFFFFFF9D
:103B6000FFFFFFFFFFFFFFFFFFFFFFFFFFFFFFFF65
:103B7000FFFFFFFFFFFFFFFFFFFFFFFFFFFFFFFF55
:103B8000FFFFFFFFFFFFFFFFFFFFFFFFFFFFFFFF45
:103B9000FF84C48C621021D89C756B3BC6534A537A
:103BA0004ABAB5712951297031CB6AE7A365BC6562
:103BB000BC45B465BC65BC65BC65BC45B445BC656D
:103BC000BC65BCA8936C62512951293784F0183523
:103BD0006319A598943BC6F0185121698B65BCFF09
:103BE000FFFFFFFFFFFFFFFFFFFFFFFFFFFFFFFFE5
:103BF000FFFFFFFFFFFFFFFFFFFFFFFFFFFFFFFFD5
:103C0000FFFFFFFFFFFFFFFFFFFFFFFFFFFFFF843F
:103C1000C48C6251291463B3529AB5B4521BC6B115
:103C20003130219031498365BC45BC65BC45B44504
:103C3000B465BC8C620E4A0E4ACB7245BC45B44595
:103C4000B445BC65BC45BC45B4EB7251293021F983
:103C50009CD89CF45A534AB894B4523121688B656D
:103C6000BCFFFFFFFFFFFFFFFFFFFFFFFFFFFFFFA7
:103C7000FFFFFFFFFFFFFFFFFFFFFFFFFFFFFFFF54
:103C8000FFFFFFFFFFFFFFFFFFFFFFFFFF65BCEA36
:103C9000721021967319A598943342578C7129316B
:103CA00021CB6A65BC45BC45BC0A7B6D5A65BC65C9
:103CB000BC65BCEE41512951292D52E7A365BC8456
:103CC000C451294D52A89B65BC45BC45B44D5231E9
:103CD00021556BB89419A5DBBD378491313121C7CB
:103CE0009B45B445B4FFFFFFFFFFFFFFFFFFFFFF52
:103CF000FFFFFFFFFFFFFFFFFFFFFFFFFFFFFFFFD4
:103D0000FFFFFFFFFFFFFFFFFF45B445B48893317E
:103D1000213563BAB5F239F99C59AD10219031C7FC
:103D2000A345BC45B4698B5129512951218C62AFFF
:103D30003911191021F018F018F018F0181121AFEE
:103D400039512951293121698B45B445B465BC49A4
:103D50008B5121534ADABDB352578C19A5534A707F
:103D60002926B4FFFF45B4FFFFFFFFFFFFFFFFFF62
:103D7000FFFFFFFFFFFFFFFFFFFFFFFFFFFFFFFF53
:103D8000FFFFFFFFFFFFFFFFFFFFFF26B45129F4F6
:103D90005AD89C93525AAD32425129CF3945B44535
:103DA000B445B445B445B4312151291021934AF9A1
:103DB0009C9DCE9BEE79FE79FE9AF69BE67CC678BA
:103DC0008CF23930215121C7A365BC45B465BC458F
:103DD000B4E7A37029324219A59AB59894578CD2AA
:103DE00039EE4184C4FFFFFFFFFFFFFFFFFFFFFF2E
:103DF000FFFFFFFFFFFFFFFFFFFFFFFFFFFFFFFFD3
:103E0000FFFFFFFFFFFFFFFFFF84C42E52F0189A51
:103E1000B53784756B556B9131CF3945BC65BC06A0
:103E2000AC45BC06ACEE411021F67BFDE613F5492E
:103E3000DAA3C8A3C8C4C8C4C8C4C8A3C8E4C8EC2B
:103E4000DAD6FDBDD6F45AF1186C5A65BC4D5A0647
:103E5000AC45B406AC7029502939A539A51463D4F2
:103E60005A31212A7B65BC45B4FFFFFFFFFFFFFFEE
:103E7000FFFFFFFFFFFFFFFFFFFFFFFFFFFFFFFF52
:103E8000FFFFFFFFFF45B445B488931121F99C73F0
:103E90004A1242F99C1021903145B465BC0A7B312D
:103EA00021EB725121734AFDE6CFE3A3C8E4C804B5
:103EB000C904C904C9C4C829D204C904C904C904AD
:103EC000C9E4C805C914F57CCEB131512951297016
:103ED0003106AC45B4C7A35121F67B378495739A5C
:103EE000B5756B512926B4FFFFFFFFFFFFFFFFFFF2
:103EF000FFFFFFFFFFFFFFFFFFFFFFFFFFFFFFFFD2
:103F0000FFFFFFFFFFFFFF84C4AF399352B6733941
:103F1000A5DBBD71295121E7A345BC0A7B51215185
:103F20002930213784FFF731E4E4C804C904C90407
:103F3000C9E4C866D16BD3CAC4C4C825D104C904B6
:103F4000C904C904C966D1FBFFDDFFD45A50295109
:103F500029903165BC45BC29833121B8943563D49F
:103F60005A302151298C6265BCFFFFFFFFFFFFFF24
:103F7000FFFFFFFFFFFFFFFFFFFFFFFFFFFFFFFF51
:103F8000FFFFFFFFFF26B4698B10219894FBBDBA99
:103F9000B598943021EA7245BC65BCCB6A51293092
:103FA00021F9A47FB75C561CFFA3C804C904C90447
:103FB000C909D2CED4A7BC44B48EDCECD3E4C80487
:103FC000C904C904C9F0E352FF0EFFFCFF35633199
:103FD00021A89B45B445B465BC2E52D239F77B501D
:103FE000291021D239312126B4FFFFFFFFFFFFFF47
:103FF000FFFFFFFFFFFFFFFFFFFFFFFFFFFFFFFFD1
:10400000FFFFFFFFFF84C4EE4112429894578CD803
:104010009CD239AF3965BC45B445B406AC50215784
:104020008C5EB75C565C5EFFD7A7D104C904C9E4B7
:10403000C88AD366BCC9C4C9C42BC5EAC4E5D004C8
:10404000C904C9C4C859F60DFF0EFF0EFFFCFFB42A
:1040500052B03965BC45B445B426ACB2313021B656
:10406000739AB5FBBD1021EB7265BC45B4FFFFFF31
:10407000FFFFFFFFFFFFFFFFFFFFFFFFFFFFFFFF50
:10408000FFFFFFFFFF06AC3121302191319894757D
:104090006B3121698B45B445BC65BCCF41B352DF60
:1040A000D73C565D5E5D5EFE9651ECE4C804C9A443
:1040B000C8CBCC45B48ED5EAC487BC44B40AD3047B
:1040C000C904C9E4C8FBFF0EFF0EFF0EFF0EFFDEA2
:1040D000FF91318C6226ACE7A345BCAC6AB13132AA
:1040E00042356359AD9352903184C4FFFFFFFFFF07
:1040F000FFFFFFFFFFFFFFFFFFFFFFFFFFFFFFFFD0
:10410000FFFFFF65BCEB727129BAB5378496733037
:1041100021B03965BC26B46D5AEB7210217EEF5C7C
:104120005E3EAF3EB75D5E5D5EFBFEA3C804C9C8E0
:10413000D1C7BC45B40AC524B42BCD24B48DD4C496
:10414000C804C92DDB95FF0EFF0EFF0EFFEEFE31FA
:10415000FFFCBD302151214D5A65BC26B4312114DC
:1041600063B894D89CB6733121C79BFFFFFFFFFF54
:10417000FFFFFFFFFFFFFFFFFFFFFFFFFFFFFFFF4F
:10418000FFFFFF84C4EF415029734ABAB5F67B3074
:1041900021EA7A45BCCB7251295129578CFE9E5C8D
:1041A0005E9FD7BFDF5C565C5EFFDF86D104C9E54A
:1041B000D08ED44CCDEAC4EAC487BC6ECDA8D1E47D
:1041C000C8E4C897ED0EFF0EFF0EFF0EFF2FBD4E89
:1041D000FFFAFF734A5129512145B465BC2D52F2B3
:1041E00039FBBDD239F0185029CB6A65BC65B4FFE4
:1041F000FFFFFFFFFFFFFFFFFFFFFFFFFFFFFFFFCF
:10420000FFFFFF65BC31219673B6733021D89C3116
:104210002126AC65BC7029512910219EEF3C565CCB
:1042200056DD8E9D6E9D765D5E1E9F10E449D2CA5E
:10423000C445B445BCF0D5D0D5E9C425B4C8BC6BE1
:10424000D3A3C8BBFF0EFF0EFF0EFF2EFF2FBD2E08
:10425000FF30FF1CBE30213121498345B4498B100A
:104260001959ADB8941BC69352EE4184C4FFFFFFA9
:10427000FFFFFFFFFFFFFFFFFFFFFFFFFFFFFFFF4E
:10428000FFFFFFA89B3121178437841BC6D45AAF88
:104290003965BC06AC4D5A702914635EB75D5EBDCE
:1042A000865D5E5D5E9D7E17447D66BAFEA7D1ABDE
:1042B000CC24B487BC90D58ED5CBCC24B4C8C40A4A
:1042C000D34ADAB7FF0EFF0EFF0EFF4EE6EFAC0E3D
:1042D000FF0EFFFDFF71290A7B65BC45B445B43173
:1042E00021F45A19A5B3521242312184C4FFFFFFB1
:1042F000FFFFFFFFFFFFFFFFFFFFFFFFFFFFFFFFCE
:10430000FF45B42A8310217AAD9CD6178471296C9D
:104310005A45BC45B484C4702959AD9D6EFE96DDE6
:10432000965D5E5D5E5A5510213C56FFDF46D1E436
:10433000D08BD36DDB65B445B48CD44BD387D1E43B
:10434000C8D4EC30FF0EFF0EFF2EFF10420FB50E4B
:10435000FF0EFF96FF96732D5265BC45B465BCAF4A
:1043600039734A39A51BC696733121E7A3FFFFFFB6
:10437000FFFFFFFFFFFFFFFFFFFFFFFFFFFFFFFF4D
:10438000FF65BCAB6AB131578C578C9AB510210AC6
:104390007B45B445B406ACF118FDDE3C56FFFF9FEB
:1043A000D75D5E5D5EDE8E1E8F5C561E9FF0E30461
:1043B000C9E4C826D1C9C445B48BD3E4C804C9A391
:1043C000C81BFF0DFF0EFF2EFFD0625129B0832EB8
:1043D000FF0EFF31FF5AAD702984C445BC65BC4D4A
:1043E0005232425AADF99C378431218893FFFFFF46
:1043F000FFFFFFFFFFFFFFFFFFFFFFFFFFFFFFFFCD
:10440000FF65BC6C5A32429894778CD67B31216917
:104410008B45BC06AC498BF018DFE75C569D6E5DA2
:104420005EBD86DD8EBD7E5D5EBD865D669AFEC428
:10443000C804C9E4C86BD3EAC405D104C904C98758
:10444000D1FAFF0EFF0EFF2EFFF0628F314DBD0E31
:10445000FF0EFF0EFF9DCE10216C5A889345BCAC19
:104460006AD23937843563534A5121498345B4FFB1
:10447000FFFFFFFFFFFFFFFFFFFFFFFFFFFFFFFF4C
:10448000FF84C44D52734A778CB89498941121A834
:104490009B65BCCF3951215129DFDF5C5E5D5E5DDC
:1044A0005E5D5EBD86BD7EDD8EFE963C56FFDF25E1
:1044B000D104C904C94ADA2BCCE4C804C904C91020
:1044C000E473FF29E64AEE29E68A6226A4ACF60EDA
:1044D000FF0EFF0DFF1DE7102151292A8345B4EB84
:1044E00072512951295129512951292A8345B4FF53
:1044F000FFFFFFFFFFFFFFFFFFFFFFFFFFFFFFFFCC
:10450000FF84C40E4A3121502970298F31AF39C739
:10451000A365BCCF4151299131DFD75D5E5D5E5D02
:104520005E763BD2299D5E5C56DD8E5D5E1EA7CF1A
:10453000E304C904C94ADA0ACCE4C804C9C4C859A6
:10454000F60EFFE8DD2EFF8DCDA86A4FE6E8DDCD43
:10455000FE0EFF0DFF5DEF102151292A8345B4881F
:10456000936C626D5A4D5A2D520E4A698B45B4FFB9
:10457000FFFFFFFFFFFFFFFFFFFFFFFFFFFFFFFF4B
:10458000FF45B465BC84C484C484C484C484C44565
:10459000BC65BCAF3951213021FFDF5C5E5D5E7DC3
:1045A000667D86DB6D7D6E5C56DD865D5E7D667943
:1045B000FEC4C804C94ADA0ACCE4C804C9E4C8FB8A
:1045C000FF2EFF09E629E64C73B231E7E52FFF29FC
:1045D000E64AEE0EFF1DE71021EE41698B45B4451A
:1045E000BC65BC65BC65BC65BC65BC65BC45B4FF51
:1045F000FFFFFFFFFFFFFFFFFFFFFFFFFFFFFFFFCB
:10460000FFFFFFFFFFFFFFFFFFFFFFFFFFFFFF4574
:10461000B445BCC7A34983F018BFE77D56963B5C01
:104620007E5C5E5D5EDD8E3C769D6E5D5E5C56FF03
:10463000E705D104C94ADA0ACCE4C804C92DDB95E0
:10464000FFEDFE4AEEE7DDCA6AC7B4EDFE04C52FF2
:10465000FFCDF66BEE5DCE111985BC45BC45B4456A
:10466000B426BCFFFFFFFF65B4FFFFFFFFFFFFFFA6
:10467000FFFFFFFFFFFFFFFFFFFFFFFFFFFFFFFF4A
:10468000FFFFFFFFFFFFFFFFFFFFFFFFFFFFFF45F4
:10469000B445B445B426B4F118BDDE5D56D2317AC6
:1046A0006D5D5E5D5E9D5EAF20584C5D5E5D5E3E05
:1046B000A7AFE304C94ADA0ACCE4C8E4C897ED0F0F
:1046C000FF86D5EEFEC9B4D118A9B4EDFE09E60EF9
:1046D000FF0EFF52FF199D903165BC45B445B445AE
:1046E000B4FFFFFFFFFFFFFFFFFFFFFFFFFFFFFF25
:1046F000FFFFFFFFFFFFFFFFFFFFFFFFFFFFFFFFCA
:10470000FFFFFFFFFFFFFFFFFFFFFFFFFF45B44578
:10471000B445B445B465BC9031F9A4BD7EBD76BD49
:1047200086DD965D5EDD7E9B655D5E5D5E5D5E7DCC
:104730006659FEC4C84ADA0ACCE4C8A3C8BCFF0E56
:10474000FF09E68CF6A8ACAA62C7DD4FFF09E60EAA
:10475000FF0EFFB7FF35636C5A65BC45B445B445E1
:10476000B4FFFFFFFFFFFFFFFFFFFFFFFFFFFFFFA4
:10477000FFFFFFFFFFFFFFFFFFFFFFFFFFFFFFFF49
:10478000FFFFFFFFFFFFFFFFFFFFFFFFFFFFFF45F3
:10479000B445B445BC698BAF39734A9FC75C56DDDD
:1047A0008E5D5E7864B64B7D5E5D5E5D5E5D5E5C7B
:1047B00056FFE704C94ADA0ACCE4C86ADAD7FF0E22
:1047C000FF0EFF48EEF041917BCCFEC8DD09E60EFE
:1047D000FF0DFFFDFF30215129AB6A65BC45B4FFD9
:1047E000FFFFFFFFFFFFFFFFFFFFFFFFFFFFFFFFD9
:1047F000FFFFFFFFFFFFFFFFFFFFFFFFFFFFFFFFC9
:10480000FFFFFFFFFFFFFFFFFFFFFFFFFFFFFFFFB8
:10481000FF45B465BC0E4A512910211DE75D5E7D40
:104820007EF94CB84C37547D5E5D5E5D5E5D5E5DCD
:104830005E3EA76EE34ADA0ACCC4C8D4EC31FF0E60
:10484000FF4EFF314A267BC9B48BEE2FFF0EFF0EC1
:10485000FF51FF7AAD50295129498B45B445B4FF2A
:10486000FFFFFFFFFFFFFFFFFFFFFFFFFFFFFFFF58
:10487000FFFFFFFFFFFFFFFFFFFFFFFFFFFFFFFF48
:10488000FFFFFFFFFFFFFFFFFFFFFFFFFFFFFFFF38
:10489000FF45B445B4698B51295129756B5EB778D2
:1048A0004410291E871EA7BD869D6E3C567FCFFEF5
:1048B0009E7D6618FE49D209CC83C83BFF0DFF0ED2
:1048C000FFCFD5312150294FBD0EFF0EFF0EFF0D3A
:1048D000FFFCFFD2395121703165BC45B445B44568
:1048E000B4FFFFFFFFFFFFFFFFFFFFFFFFFFFFFF23
:1048F000FFFFFFFFFFFFFFFFFFFFFFFFFFFFFFFFC8
:10490000FFFFFFFFFFFFFFFFFFFFFFFFFFFFFFFFB7
:10491000FF45B445B465BC90318C62F018DDDE9D76
:104920006E7D5EDD8EBD7E5D5E9D76BD86DFEF3E7B
:10493000B73C56FFE705D1C8D187D1FAFF0EFF2E4D
:10494000FF5073D03911198EEE0EFF0EFF0EFF735C
:10495000FF199D3121C79B698B45BC45B4FFFFFF03
:10496000FFFFFFFFFFFFFFFFFFFFFFFFFFFFFFFF57
:10497000FFFFFFFFFFFFFFFFFFFFFFFFFFFFFFFF47
:10498000FFFFFFFFFFFFFFFFFFFFFFFFFFFFFFFF37
:10499000FFFFFF45B445B465BC65BC4D52D239DF5D
:1049A000EF5D5E5D5EDD8EFE865D5E5D5E3C56DDCE
:1049B000865D5E3EAF4DDB04C910E473FF0EFF2E33
:1049C000FFD083EEFE304A6EFF0EFF0EFF0FFF5E3C
:1049D000EF30210A7B45BC45B445B445B445B4FF2E
:1049E000FFFFFFFFFFFFFFFFFFFFFFFFFFFFFFFFD7
:1049F000FFFFFFFFFFFFFFFFFFFFFFFFFFFFFFFFC7
:104A0000FFFFFFFFFFFFFFFFFFFFFFFFFFFFFFFFB6
:104A1000FF45B445B445B445B445B445B4903114EC
:104A200063DFDF5C565D6630293A555D5E5D5EDDB5
:104A30008E5C567D6EF7FDA3C87AF60EFF0EFFEF73
:104A4000AC106BAFA48FA40EFF0EFF0EFFDEFFD2E3
:104A5000390E4A65BC45B445B445B4FFFFFFFFFFBE
:104A6000FFFFFFFFFFFFFFFFFFFFFFFFFFFFFFFF56
:104A7000FFFFFFFFFFFFFFFFFFFFFFFFFFFFFFFF46
:104A8000FFFFFFFFFFFFFFFFFFFFFFFFFFFFFFFF36
:104A9000FFFFFFFFFF45B445B445B426ACAF395026
:104AA00029756BDFE77D5E17447D76DD8E9D7E5D2B
:104AB0005EDD8E3C56FFEFC4C8FCFF0EFFAEF63144
:104AC000210FDE5121EEFE0EFF0FFFDDFF324251BE
:104AD000295129A79B45B445B445B445B4FFFFFF10
:104AE000FFFFFFFFFFFFFFFFFFFFFFFFFFFFFFFFD6
:104AF000FFFFFFFFFFFFFFFFFFFFFFFFFFFFFFFFC6
:104B0000FFFFFFFFFFFFFFFFFFFFFFFFFFFFFFFFB5
:104B1000FFFFFFFFFFFFFF45B445B4C79B5129517D
:104B2000295029B452BFEF9D7E5C5E5D5E7D665E5E
:104B3000BFFFFF9D765FAF76ED95FFEEFED039CFDC
:104B4000ACAFA4CFCD0EFF73FF3DE7D23951295151
:104B5000290E4A45BC45B445B4FFFFFFFFFFFFFFE8
:104B6000FFFFFFFFFFFFFFFFFFFFFFFFFFFFFFFF55
:104B7000FFFFFFFFFFFFFFFFFFFFFFFFFFFFFFFF45
:104B8000FFFFFFFFFFFFFFFFFFFFFFFFFFFFFFFF35
:104B9000FFFFFFFFFF45B4FFFF45B445B4E7A35156
:104BA00029EE49AF397129DBC5DFD77D6E5C567DB3
:104BB000663EAF5D5E9D6EFFFF0FFFCFAC0EFF2E1A
:104BC000FF0DFF31FFFBFFD99410212E4A8C620E9E
:104BD0004A65BC45B445B4FFFFFFFFFFFFFFFFFF81
:104BE000FFFFFFFFFFFFFFFFFFFFFFFFFFFFFFFFD5
:104BF000FFFFFFFFFFFFFFFFFFFFFFFFFFFFFFFFC5
:104C0000FFFFFFFFFFFFFFFFFFFFFFFFFFFFFFFFB4
:104C1000FFFFFFFFFFFFFF45B445B445B445B4C7F0
:104C20009B45B465BCAC621121534ADBBDDFE73E56
:104C3000A79D765C563C4E9CEF0DFF0EFF51FFB6D4
:104C4000FFBCFF1AA5B13150292A7B65BC65BC4564
:104C5000BC45B445B4FFFF45B4FFFFFFFFFFFFFFB6
:104C6000FFFFFFFFFFFFFFFFFFFFFFFFFFFFFFFF54
:104C7000FFFFFFFFFFFFFFFFFFFFFFFFFFFFFFFF44
:104C8000FFFFFFFFFFFFFFFFFFFFFFFFFFFFFFFF34
:104C9000FFFFFFFFFFFFFFFFFF45B445B445B445ED
:104CA000B445B445B465BCAC6251293021302155BE
:104CB0006BF9A43BCEBDD6DCDE9CD6FCBDB894D44B
:104CC0005A1021502951296D5A65BC45B445B44547
:104CD000B445B4FFFF45B4FFFFFFFFFFFFFFFFFF39
:104CE000FFFFFFFFFFFFFFFFFFFFFFFFFFFFFFFFD4
:104CF000FFFFFFFFFFFFFFFFFFFFFFFFFFFFFFFFC4
:104D0000FFFFFFFFFFFFFFFFFFFFFFFFFFFFFFFFB3
:104D1000FFFFFFFFFFFFFFFFFFFFFF45B4FFFF4562
:104D2000B445B445B465BC2D52312151290E4A4DCC
:104D30005A8F3111213021102130213121CF398C6E
:104D4000624D52512971298C6265BC45B465BC45E0
:104D5000B4FFFF45B4FFFFFFFFFFFFFFFFFFFFFFB3
:104D6000FFFFFFFFFFFFFFFFFFFFFFFFFFFFFFFF53
:104D7000FFFFFFFFFFFFFFFFFFFFFFFFFFFFFFFF43
:104D8000FFFFFFFFFFFFFFFFFFFFFFFFFFFFFFFF33
:104D9000FFFFFFFFFFFFFFFFFFFFFFFFFF45B465C2
:104DA000BC698B06AC45BC65BC06AC8C62A893653F
:104DB000BC65BC26AC312151293121E7A365BC4536
:104DC000BCE7A3298365BC45BC65BCC79B6D5A8401
:104DD000C4FFFFFFFFFFFFFFFFFFFFFFFFFFFFFF1E
:104DE000FFFFFFFFFFFFFFFFFFFFFFFFFFFFFFFFD3
:104DF000FFFFFFFFFFFFFFFFFFFFFFFFFFFFFFFFC3
:104E0000FFFFFFFFFFFFFFFFFFFFFFFFFFFFFFFFB2
:104E1000FFFFFFFFFFFFFFFFFFFFFF45BCFFFF0698
:104E2000AC512951218C6206AC65BC45BC45BC45E2
:104E3000B445B426B4EA72EA7AEB7206AC45B445DE
:104E4000B445B445B465BCC79B2D52312151212ACC
:104E50008365BC45B4FFFFFFFFFFFFFFFFFFFFFFC0
:104E6000FFFFFFFFFFFFFFFFFFFFFFFFFFFFFFFF52
:104E7000FFFFFFFFFFFFFFFFFFFFFFFFFFFFFFFF42
:104E8000FFFFFFFFFFFFFFFFFFFFFFFFFFFFFFFF32
:104E9000FFFFFFFFFFFFFFFFFFFFFFFFFF84C4EEE9
:104EA000411242F239502931210E4A2A8326AC653B
:104EB000BC65BC45BC45BC45B445BC45BC65BC8572
:104EC000BCE7A3EA72CF39312150293242534A510B
:104ED0002926ACFFFFFFFFFFFFFFFFFFFFFFFFFFE4
:104EE000FFFFFFFFFFFFFFFFFFFFFFFFFFFFFFFFD2
:104EF000FFFFFFFFFFFFFFFFFFFFFFFFFFFFFFFFC2
:104F0000FFFFFFFFFFFFFFFFFFFFFFFFFFFFFFFFB1
:104F1000FFFFFFFFFFFFFFFFFF45B465BC0A7B31CA
:104F20002130211784556B734A3021D23951299091
:104F3000310E4A8C62AB6ACB6AAB6A6D5AEE49702D
:104F400029312151291021734A1784534AB45251EF
:104F5000290E4A84C4FFFFFFFFFFFFFFFFFFFFFF93
:104F6000FFFFFFFFFFFFFFFFFFFFFFFFFFFFFFFF51
:104F7000FFFFFFFFFFFFFFFFFFFFFFFFFFFFFFFF41
:104F8000FFFFFFFFFFFFFFFFFFFFFFFFFFFFFFFF31
:104F9000FFFFFFFFFFFFFFFFFFFFFFE6A3512135EC
:104FA00063D45AF45A178435631463B673D139B194
:104FB000313021302130213021F2397129502991AD
:104FC00031F45A14631463556B9131B894D67B1045
:104FD0002151212A8365BC25B4FFFFFFFFFFFFFF9E
:104FE000FFFFFFFFFFFFFFFFFFFFFFFFFFFFFFFFD1
:104FF000FFFFFFFFFFFFFFFFFFFFFFFFFFFFFFFFC1
:10500000FFFFFFFFFFFFFFFFFFFFFFFFFFFFFFFFB0
:10501000FFFFFFFFFFFFFFFFFF45BCC79BCF3931FD
:10502000219894B1311463B673B67395731021B699
:105030007337841463F67BD67B556BF45A12421493
:105040006337847129D67BF45AB6733342D239352B
:10505000638F5A06AC45B4FFFFFFFFFFFFFFFFFF62
:10506000FFFFFFFFFFFFFFFFFFFFFFFFFFFFFFFF50
:10507000FFFFFFFFFFFFFFFFFFFFFFFFFFFFFFFF40
:10508000FFFFFFFFFFFFFFFFFFFFFFFFFFFFFFFF30
:10509000FFFFFFFFFFFFFFFFFFFFFFE7A384C44900
:1050A0008B314A3121124271295129146330215523
:1050B0006BD45A9352756BF67B3563734A3242D880
:1050C0009C98941463F2395029734A3121EE41A817
:1050D0009364BCFFFF45B4FFFFFFFFFFFFFFFFFF2F
:1050E000FFFFFFFFFFFFFFFFFFFFFFFFFFFFFFFFD0
:1050F000FFFFFFFFFFFFFFFFFFFFFFFFFFFFFFFFC0
:10510000FFFFFFFFFFFFFFFFFFFFFFFFFFFFFFFFAF
:10511000FFFFFFFFFFFFFFFFFFFFFF45B4FFFF455E
:10512000B484C488934D5251215121913151297138
:1051300029556B734A93521463CF18146350291284
:10514000423021B131F23950298C62C7A384C4FFA7
:10515000FFFFFFFFFFFFFFFFFFFFFFFFFFFFFFFF5F
:10516000FFFFFFFFFFFFFFFFFFFFFFFFFFFFFFFF4F
:10517000FFFFFFFFFFFFFFFFFFFFFFFFFFFFFFFF3F
:10518000FFFFFFFFFFFFFFFFFFFFFFFFFFFFFFFF2F
:10519000FFFFFFFFFFFFFFFFFFFFFFFFFFFFFF45D9
:1051A000B4FFFFFFFF65BC65BC8893AB6AEE41515D
:1051B000293121312192293121512131213121708F
:1051C000290E4ACB72A89384C465BCFFFFFFFFFF82
:1051D000FFFFFFFFFFFFFFFFFFFFFFFFFFFFFFFFDF
:1051E000FFFFFFFFFFFFFFFFFFFFFFFFFFFFFFFFCF
:1051F000FFFFFFFFFFFFFFFFFFFFFFFFFFFFFFFFBF
:10520000FFFFFFFFFFFFFFFFFFFFFFFFFFFFFFFFAE
:10521000FFFFFFFFFFFFFFFFFFFFFFFFFFFFFFFF9E
:10522000FFFFFFFFFF45B4FFFFFFFF65BC84C484A1
:10523000C425B4E7A3A89BA89BA79BE7A345BC8470
:10524000C484C465BCFFFFFFFF45B4FFFFFFFFFF41
:10525000FFFFFFFFFFFFFFFFFFFFFFFFFFFFFFFF5E
:10526000FFFFFFFFFFFFFFFFFFFFFFFFFFFFFFFF4E
:10527000FFFFFFFFFFFFFFFFFFFFFFFFFFFFFFFF3E
:10528000FFFFFFFFFFFFFFFFFFFFFFFFFFFFFFFF2E
:10529000FFFFFFFFFFFFFFFFFFFFFFFFFFFFFFFF1E
:1052A000FFFFFFFFFFFFFFFFFFFFFFFFFF45BCFF0B
:1052B000FFFFFFFFFFFFFFFFFFFFFFFFFFFFFFFFFE
:1052C000FF45B4FFFFFFFFFFFFFFFFFFFFFFFFFFF3
:1052D000FFFFFFFFFFFFFFFFFFFFFFFFFFFFFFFFDE
:1052E000FFFFFFFFFFFFFFFFFFFFFFFFFFFFFFFFCE
:1052F000FFFFFFFFFFFFFF446F6E650A496E697491
:1053000069616C6973696E6720446973706C617957
:105310002E2E2E00496E697469616C6973696E671F
:10532000204465766963652E2E2E00424953540051
:1053300053455454494E475300524553554C5453CA
:1053400000436C656172696E6720446174612E2E42
:105350002E004744573A2000535045435452554D70
:10536000004552524F523A204920646F6E277420F4
:105370006B6E6F772077686963682070616765205E
:10538000746F20676F20746F210020616761696E00
:105390000052656164696E67200052656164696EE0
:1053A000672000000000F800F800F800F800F8009E
:1053B000F800F800F800F800F800F800F800F8002D
:1053C000F800F800F8000000000000000000F800FD
:1053D000F8000000000000000000000000000000D5
:1053E000000000000000000000000000F8000000C5
:1053F000000000000000F800F800000000000000BD
:10540000000000000000000000000000000000009C
:1054100000000000F8000000000000000000F8009C
:10542000F800000000000000000000000000000084
:10543000000000000000000000000000F800F8007C
:10544000F80000000000F800F80000000000000074
:10545000000000000000000000000000000000004C
:105460000000000000000000F80000000000F8004C
:10547000F800000000000000000000000000000034
:10548000000000000000000000000000000000001C
:10549000F80000000000F800F80000000000000024
:1054A00000000000000000000000000000000000FC
:1054B00000000000F800F800F80000000000F8000C
:1054C000F8000000000000000000000000000000E4
:1054D000000000000000000000000000F800F800DC
:1054E000F80000000000F800F800000000000000D4
:1054F00000000000000000000000000000000000AC
:1055000000000000F8000000000000000000F800AB
:10551000F800F800F800F800F800F800F800F800CB
:10552000F800F800F800F800F800F800F8000000B3
:10553000000000000000000000000000000000006B
:10554000000000000000000000000000000000005B
:10555000000000000000000000000000000000004B
:10556000000000000000000000000000000000003B
:10557000000000000000000000000000000000002B
:10558000000000000000000000000000000000001B
:10559000000000000000000000000000000000000B
:1055A00000000000000000000000000000000000FB
:1055B00000000000000000000000000000000000EB
:1055C00000000000000000000000000000000000DB
:1055D00000000000000000000000000000000000CB
:1055E00000000000000000000000000000000000BB
:1055F00000000000000000000000000000000000AB
:10560000000000000000000000000000000000009A
:10561000000000000000000000000000000000008A
:10562000000000000000000000000000000000007A
:10563000000000000000000000000000000000006A
:10564000000000000000000000000000000000005A
:10565000000000000000000000000000000000004A
:10566000000000000000000000000000000000003A
:10567000000000000000000000000000000000002A
:10568000000000000000000000000000000000001A
:10569000000000000000000000000000000000000A
:1056A00000000000000000000000000000000000FA
:1056B00000000000000000000000000000000000EA
:1056C0000000000000FFFFFFFFFFFFFFFFFFFFFFE5
:1056D000FFFFFFFFFFFFFFFFFFFFFFFFFFFFFFFFDA
:1056E000FFFFFFFFFF0000000000000000FFFFFFC2
:1056F000FFFFFFFFFFFFFFFFFFFFFFFFFFFFFFFFBA
:10570000FFFFFFFFFFFFFFFFFFFFFFFFFF000000A6
:105710000000000000FFFFFFFFFFFFFFFFFFFFFF94
:10572000FFFFFFFFFFFFFFFFFFFFFFFFFFFFFFFF89
:10573000FFFFFFFFFF0000000000000000FFFFFF71
:10574000FFFFFFFFFFFFFFFFFFFFFFFFFFFFFFFF69
:10575000FFFFFFFFFFFFFFFFFFFFFFFFFFFFFFFF59
:10576000FF00000000FFFFFFFFFFFFFFFFFFFFFF45
:10577000FFFFFFFFFFFFFFFFFFFFFFFFFFFFFFFF39
:10578000FFFFFFFFFFFFFFFFFF00000000FFFFFF25
:10579000FFFFFFFFFFFFFFFFFFFFFFFFFFFFFFFF19
:1057A000FFFFFFFFFFFFFFFFFFFFFFFFFFFFFFFF09
:1057B000FF00000000FFFFFFFFFFFFFFFFFFFFFFF5
:1057C000FFFFFFFFFFFFFFFFFFFFFFFFFFFFFFFFE9
:1057D000FFFFFFFFFFFFFFFFFF00000000FFFFFFD5
:1057E000FFFFFFFFFFFFFFFFFFFFFFFFFFFFFFFFC9
:1057F000FFFFFFFFFFFFFFFFFFFFFFFFFFFFFFFFB9
:10580000FF00000000FFFFFFFFFFFFFFFFFFFFFFA4
:10581000FFFFFFFFFFFFFFFFFFFFFFFFFFFFFFFF98
:10582000FFFFFFFFFF0000000000000000FFFFFF80
:10583000FFFFFFFFFFFFFFFFFFFFFFFFFFFFFFFF78
:10584000FFFFFFFFFFFFFFFFFFFFFFFFFF00000065
:105850000000000000000000000000000000000048
:105860000000000000000000000000000000000038
:105870000000000000000000000000000000000028
:105880000000000000000000000000000000000018
:105890000000000000000000000000000000000008
:1058A00000000000000000000000000000000000F8
:1058B00000000000000000000000000000000000E8
:1058C00000000000000000000000000000000000D8
:1058D00000000000000000000000000000000000C8
:1058E00000000000000000000000000000000000B8
:1058F00000000000000000000000000000000000A8
:105900000000000000000000000000000000000097
:105910000000000000000000000000000000000087
:105920000000000000000000000000000000000077
:105930000000000000000000000000000000000067
:105940000000000000000000000000000000000057
:105950000000000000000000000000000000000047
:105960000000000000000000000000000000000037
:105970000000000000000000000000000000000027
:105980000000000000000000000000000000000017
:105990000000000000000000000000000000000007
:1059A00000000000000000000000000000000000F7
:1059B00000000000000000000000000000000000E7
:1059C00000000000000000000000000000000000D7
:1059D00000000000000000000000000000000000C7
:1059E0000000000000FFFFFFFFFFFFFFFFFFFFFFC2
:1059F000FFFFFFFFFFFFFFFFFFFFFFFFFFFFFFFFB7
:105A0000FFFFFFFFFF0000000000000000FFFFFF9E
:105A1000FFFFFFFFFFFFFFFFFFFFFFFFFFFFFFFF96
:105A2000FFFFFFFFFF000000000000FFFF0000007D
:105A30000000000000FFFFFFFFFFFFFFFFFFFFFF71
:105A4000FFFFFFFFFFFFFFFFFFFFFFFFFF00000063
:105A5000000000FFFF0000000000000000FFFFFF4B
:105A6000FFFFFFFFFFFFFFFFFFFFFFFFFFFFFFFF46
:105A7000FFFFFFFFFF000000000000FFFFFFFFFF30
:105A8000FF00000000FFFFFFFFFFFFFFFFFFFFFF22
:105A9000FFFFFFFFFFFFFFFFFFFFFFFFFF00000013
:105AA00000000000000000FFFF00000000FFFFFFFB
:105AB000FFFFFFFFFFFFFFFFFFFFFFFFFFFFFFFFF6
:105AC000FFFFFFFFFF00000000000000000000FFDC
:105AD000FF00000000FFFFFFFFFFFFFFFFFFFFFFD2
